{
	"dice.sol": {
		"Dice": {
			"abi": [
				{
					"inputs": [
						{
							"internalType": "uint8",
							"name": "num",
							"type": "uint8"
						}
					],
					"name": "dice",
					"outputs": [],
					"stateMutability": "payable",
					"type": "function"
				},
				{
					"inputs": [],
					"name": "getBalance",
					"outputs": [
						{
							"internalType": "uint256",
							"name": "",
							"type": "uint256"
						}
					],
					"stateMutability": "view",
					"type": "function"
				},
				{
					"inputs": [],
					"name": "refil",
					"outputs": [],
					"stateMutability": "payable",
					"type": "function"
				},
				{
					"inputs": [],
					"name": "retrieve",
					"outputs": [
						{
							"internalType": "uint256",
							"name": "",
							"type": "uint256"
						}
					],
					"stateMutability": "view",
					"type": "function"
				},
				{
					"inputs": [
						{
							"internalType": "uint256",
							"name": "num",
							"type": "uint256"
						}
					],
					"name": "store",
					"outputs": [],
					"stateMutability": "nonpayable",
					"type": "function"
				},
				{
					"inputs": [],
					"name": "withdrawMoney",
					"outputs": [],
					"stateMutability": "nonpayable",
					"type": "function"
				}
			],
			"devdoc": {
				"kind": "dev",
				"methods": {},
				"version": 1
			},
			"evm": {
				"assembly": "    /* \"dice.sol\":75:1339  contract Dice {... */\n  mstore(0x40, 0x80)\n  callvalue\n  dup1\n  iszero\n  tag_1\n  jumpi\n  0x00\n  dup1\n  revert\ntag_1:\n  pop\n  dataSize(sub_0)\n  dup1\n  dataOffset(sub_0)\n  0x00\n  codecopy\n  0x00\n  return\nstop\n\nsub_0: assembly {\n        /* \"dice.sol\":75:1339  contract Dice {... */\n      mstore(0x40, 0x80)\n      jumpi(tag_1, lt(calldatasize, 0x04))\n      shr(0xe0, calldataload(0x00))\n      dup1\n      0x12065fe0\n      eq\n      tag_2\n      jumpi\n      dup1\n      0x2e64cec1\n      eq\n      tag_3\n      jumpi\n      dup1\n      0x543df080\n      eq\n      tag_4\n      jumpi\n      dup1\n      0x6057361d\n      eq\n      tag_5\n      jumpi\n      dup1\n      0xa04c797f\n      eq\n      tag_6\n      jumpi\n      dup1\n      0xac446002\n      eq\n      tag_7\n      jumpi\n    tag_1:\n      0x00\n      dup1\n      revert\n        /* \"dice.sol\":364:457  function getBalance() public view returns(uint) {... */\n    tag_2:\n      callvalue\n      dup1\n      iszero\n      tag_8\n      jumpi\n      0x00\n      dup1\n      revert\n    tag_8:\n      pop\n      tag_9\n      tag_10\n      jump\t// in\n    tag_9:\n      mload(0x40)\n      tag_11\n      swap2\n      swap1\n      tag_12\n      jump\t// in\n    tag_11:\n      mload(0x40)\n      dup1\n      swap2\n      sub\n      swap1\n      return\n        /* \"dice.sol\":205:284  function retrieve() public view returns (uint256){... */\n    tag_3:\n      callvalue\n      dup1\n      iszero\n      tag_13\n      jumpi\n      0x00\n      dup1\n      revert\n    tag_13:\n      pop\n      tag_14\n      tag_15\n      jump\t// in\n    tag_14:\n      mload(0x40)\n      tag_16\n      swap2\n      swap1\n      tag_12\n      jump\t// in\n    tag_16:\n      mload(0x40)\n      dup1\n      swap2\n      sub\n      swap1\n      return\n        /* \"dice.sol\":290:359  function refil() public payable {... */\n    tag_4:\n      tag_17\n      tag_18\n      jump\t// in\n    tag_17:\n      stop\n        /* \"dice.sol\":135:199  function store(uint256 num) public {... */\n    tag_5:\n      callvalue\n      dup1\n      iszero\n      tag_19\n      jumpi\n      0x00\n      dup1\n      revert\n    tag_19:\n      pop\n      tag_20\n      0x04\n      dup1\n      calldatasize\n      sub\n      dup2\n      add\n      swap1\n      tag_21\n      swap2\n      swap1\n      tag_22\n      jump\t// in\n    tag_21:\n      tag_23\n      jump\t// in\n    tag_20:\n      stop\n        /* \"dice.sol\":591:800  function dice(uint8 num) public payable {... */\n    tag_6:\n      tag_24\n      0x04\n      dup1\n      calldatasize\n      sub\n      dup2\n      add\n      swap1\n      tag_25\n      swap2\n      swap1\n      tag_26\n      jump\t// in\n    tag_25:\n      tag_27\n      jump\t// in\n    tag_24:\n      stop\n        /* \"dice.sol\":462:586  function withdrawMoney() public {... */\n    tag_7:\n      callvalue\n      dup1\n      iszero\n      tag_28\n      jumpi\n      0x00\n      dup1\n      revert\n    tag_28:\n      pop\n      tag_29\n      tag_30\n      jump\t// in\n    tag_29:\n      stop\n        /* \"dice.sol\":364:457  function getBalance() public view returns(uint) {... */\n    tag_10:\n        /* \"dice.sol\":406:410  uint */\n      0x00\n        /* \"dice.sol\":429:450  address(this).balance */\n      selfbalance\n        /* \"dice.sol\":422:450  return address(this).balance */\n      swap1\n      pop\n        /* \"dice.sol\":364:457  function getBalance() public view returns(uint) {... */\n      swap1\n      jump\t// out\n        /* \"dice.sol\":205:284  function retrieve() public view returns (uint256){... */\n    tag_15:\n        /* \"dice.sol\":246:253  uint256 */\n      0x00\n        /* \"dice.sol\":271:277  number */\n      dup1\n      sload\n        /* \"dice.sol\":264:277  return number */\n      swap1\n      pop\n        /* \"dice.sol\":205:284  function retrieve() public view returns (uint256){... */\n      swap1\n      jump\t// out\n        /* \"dice.sol\":290:359  function refil() public payable {... */\n    tag_18:\n        /* \"dice.sol\":343:352  msg.value */\n      callvalue\n        /* \"dice.sol\":332:339  balance */\n      0x01\n      0x00\n        /* \"dice.sol\":332:352  balance += msg.value */\n      dup3\n      dup3\n      sload\n      tag_34\n      swap2\n      swap1\n      tag_35\n      jump\t// in\n    tag_34:\n      swap3\n      pop\n      pop\n      dup2\n      swap1\n      sstore\n      pop\n        /* \"dice.sol\":290:359  function refil() public payable {... */\n      jump\t// out\n        /* \"dice.sol\":135:199  function store(uint256 num) public {... */\n    tag_23:\n        /* \"dice.sol\":189:192  num */\n      dup1\n        /* \"dice.sol\":180:186  number */\n      0x00\n        /* \"dice.sol\":180:192  number = num */\n      dup2\n      swap1\n      sstore\n      pop\n        /* \"dice.sol\":135:199  function store(uint256 num) public {... */\n      pop\n      jump\t// out\n        /* \"dice.sol\":591:800  function dice(uint8 num) public payable {... */\n    tag_27:\n        /* \"dice.sol\":727:745  address payable to */\n      0x00\n        /* \"dice.sol\":756:766  msg.sender */\n      caller\n        /* \"dice.sol\":727:767  address payable to = payable(msg.sender) */\n      swap1\n      pop\n        /* \"dice.sol\":777:779  to */\n      dup1\n        /* \"dice.sol\":777:788  to.transfer */\n      0xffffffffffffffffffffffffffffffffffffffff\n      and\n        /* \"dice.sol\":777:793  to.transfer(num) */\n      0x08fc\n        /* \"dice.sol\":789:792  num */\n      dup4\n        /* \"dice.sol\":777:793  to.transfer(num) */\n      0xff\n      and\n      swap1\n      dup2\n      iszero\n      mul\n      swap1\n      mload(0x40)\n      0x00\n      mload(0x40)\n      dup1\n      dup4\n      sub\n      dup2\n      dup6\n      dup9\n      dup9\n      call\n      swap4\n      pop\n      pop\n      pop\n      pop\n      iszero\n      dup1\n      iszero\n      tag_39\n      jumpi\n      returndatasize\n      0x00\n      dup1\n      returndatacopy\n      revert(0x00, returndatasize)\n    tag_39:\n      pop\n        /* \"dice.sol\":631:800  {... */\n      pop\n        /* \"dice.sol\":591:800  function dice(uint8 num) public payable {... */\n      pop\n      jump\t// out\n        /* \"dice.sol\":462:586  function withdrawMoney() public {... */\n    tag_30:\n        /* \"dice.sol\":504:522  address payable to */\n      0x00\n        /* \"dice.sol\":533:543  msg.sender */\n      caller\n        /* \"dice.sol\":504:544  address payable to = payable(msg.sender) */\n      swap1\n      pop\n        /* \"dice.sol\":554:556  to */\n      dup1\n        /* \"dice.sol\":554:565  to.transfer */\n      0xffffffffffffffffffffffffffffffffffffffff\n      and\n        /* \"dice.sol\":554:579  to.transfer(getBalance()) */\n      0x08fc\n        /* \"dice.sol\":566:578  getBalance() */\n      tag_41\n        /* \"dice.sol\":566:576  getBalance */\n      tag_10\n        /* \"dice.sol\":566:578  getBalance() */\n      jump\t// in\n    tag_41:\n        /* \"dice.sol\":554:579  to.transfer(getBalance()) */\n      swap1\n      dup2\n      iszero\n      mul\n      swap1\n      mload(0x40)\n      0x00\n      mload(0x40)\n      dup1\n      dup4\n      sub\n      dup2\n      dup6\n      dup9\n      dup9\n      call\n      swap4\n      pop\n      pop\n      pop\n      pop\n      iszero\n      dup1\n      iszero\n      tag_43\n      jumpi\n      returndatasize\n      0x00\n      dup1\n      returndatacopy\n      revert(0x00, returndatasize)\n    tag_43:\n      pop\n        /* \"dice.sol\":494:586  {... */\n      pop\n        /* \"dice.sol\":462:586  function withdrawMoney() public {... */\n      jump\t// out\n        /* \"#utility.yul\":7:146   */\n    tag_45:\n        /* \"#utility.yul\":53:58   */\n      0x00\n        /* \"#utility.yul\":91:97   */\n      dup2\n        /* \"#utility.yul\":78:98   */\n      calldataload\n        /* \"#utility.yul\":69:98   */\n      swap1\n      pop\n        /* \"#utility.yul\":107:140   */\n      tag_47\n        /* \"#utility.yul\":134:139   */\n      dup2\n        /* \"#utility.yul\":107:140   */\n      tag_48\n      jump\t// in\n    tag_47:\n        /* \"#utility.yul\":7:146   */\n      swap3\n      swap2\n      pop\n      pop\n      jump\t// out\n        /* \"#utility.yul\":152:287   */\n    tag_49:\n        /* \"#utility.yul\":196:201   */\n      0x00\n        /* \"#utility.yul\":234:240   */\n      dup2\n        /* \"#utility.yul\":221:241   */\n      calldataload\n        /* \"#utility.yul\":212:241   */\n      swap1\n      pop\n        /* \"#utility.yul\":250:281   */\n      tag_51\n        /* \"#utility.yul\":275:280   */\n      dup2\n        /* \"#utility.yul\":250:281   */\n      tag_52\n      jump\t// in\n    tag_51:\n        /* \"#utility.yul\":152:287   */\n      swap3\n      swap2\n      pop\n      pop\n      jump\t// out\n        /* \"#utility.yul\":293:622   */\n    tag_22:\n        /* \"#utility.yul\":352:358   */\n      0x00\n        /* \"#utility.yul\":401:403   */\n      0x20\n        /* \"#utility.yul\":389:398   */\n      dup3\n        /* \"#utility.yul\":380:387   */\n      dup5\n        /* \"#utility.yul\":376:399   */\n      sub\n        /* \"#utility.yul\":372:404   */\n      slt\n        /* \"#utility.yul\":369:488   */\n      iszero\n      tag_54\n      jumpi\n        /* \"#utility.yul\":407:486   */\n      tag_55\n      tag_56\n      jump\t// in\n    tag_55:\n        /* \"#utility.yul\":369:488   */\n    tag_54:\n        /* \"#utility.yul\":527:528   */\n      0x00\n        /* \"#utility.yul\":552:605   */\n      tag_57\n        /* \"#utility.yul\":597:604   */\n      dup5\n        /* \"#utility.yul\":588:594   */\n      dup3\n        /* \"#utility.yul\":577:586   */\n      dup6\n        /* \"#utility.yul\":573:595   */\n      add\n        /* \"#utility.yul\":552:605   */\n      tag_45\n      jump\t// in\n    tag_57:\n        /* \"#utility.yul\":542:605   */\n      swap2\n      pop\n        /* \"#utility.yul\":498:615   */\n      pop\n        /* \"#utility.yul\":293:622   */\n      swap3\n      swap2\n      pop\n      pop\n      jump\t// out\n        /* \"#utility.yul\":628:953   */\n    tag_26:\n        /* \"#utility.yul\":685:691   */\n      0x00\n        /* \"#utility.yul\":734:736   */\n      0x20\n        /* \"#utility.yul\":722:731   */\n      dup3\n        /* \"#utility.yul\":713:720   */\n      dup5\n        /* \"#utility.yul\":709:732   */\n      sub\n        /* \"#utility.yul\":705:737   */\n      slt\n        /* \"#utility.yul\":702:821   */\n      iszero\n      tag_59\n      jumpi\n        /* \"#utility.yul\":740:819   */\n      tag_60\n      tag_56\n      jump\t// in\n    tag_60:\n        /* \"#utility.yul\":702:821   */\n    tag_59:\n        /* \"#utility.yul\":860:861   */\n      0x00\n        /* \"#utility.yul\":885:936   */\n      tag_61\n        /* \"#utility.yul\":928:935   */\n      dup5\n        /* \"#utility.yul\":919:925   */\n      dup3\n        /* \"#utility.yul\":908:917   */\n      dup6\n        /* \"#utility.yul\":904:926   */\n      add\n        /* \"#utility.yul\":885:936   */\n      tag_49\n      jump\t// in\n    tag_61:\n        /* \"#utility.yul\":875:936   */\n      swap2\n      pop\n        /* \"#utility.yul\":831:946   */\n      pop\n        /* \"#utility.yul\":628:953   */\n      swap3\n      swap2\n      pop\n      pop\n      jump\t// out\n        /* \"#utility.yul\":959:1077   */\n    tag_62:\n        /* \"#utility.yul\":1046:1070   */\n      tag_64\n        /* \"#utility.yul\":1064:1069   */\n      dup2\n        /* \"#utility.yul\":1046:1070   */\n      tag_65\n      jump\t// in\n    tag_64:\n        /* \"#utility.yul\":1041:1044   */\n      dup3\n        /* \"#utility.yul\":1034:1071   */\n      mstore\n        /* \"#utility.yul\":959:1077   */\n      pop\n      pop\n      jump\t// out\n        /* \"#utility.yul\":1083:1305   */\n    tag_12:\n        /* \"#utility.yul\":1176:1180   */\n      0x00\n        /* \"#utility.yul\":1214:1216   */\n      0x20\n        /* \"#utility.yul\":1203:1212   */\n      dup3\n        /* \"#utility.yul\":1199:1217   */\n      add\n        /* \"#utility.yul\":1191:1217   */\n      swap1\n      pop\n        /* \"#utility.yul\":1227:1298   */\n      tag_67\n        /* \"#utility.yul\":1295:1296   */\n      0x00\n        /* \"#utility.yul\":1284:1293   */\n      dup4\n        /* \"#utility.yul\":1280:1297   */\n      add\n        /* \"#utility.yul\":1271:1277   */\n      dup5\n        /* \"#utility.yul\":1227:1298   */\n      tag_62\n      jump\t// in\n    tag_67:\n        /* \"#utility.yul\":1083:1305   */\n      swap3\n      swap2\n      pop\n      pop\n      jump\t// out\n        /* \"#utility.yul\":1392:1697   */\n    tag_35:\n        /* \"#utility.yul\":1432:1435   */\n      0x00\n        /* \"#utility.yul\":1451:1471   */\n      tag_71\n        /* \"#utility.yul\":1469:1470   */\n      dup3\n        /* \"#utility.yul\":1451:1471   */\n      tag_65\n      jump\t// in\n    tag_71:\n        /* \"#utility.yul\":1446:1471   */\n      swap2\n      pop\n        /* \"#utility.yul\":1485:1505   */\n      tag_72\n        /* \"#utility.yul\":1503:1504   */\n      dup4\n        /* \"#utility.yul\":1485:1505   */\n      tag_65\n      jump\t// in\n    tag_72:\n        /* \"#utility.yul\":1480:1505   */\n      swap3\n      pop\n        /* \"#utility.yul\":1639:1640   */\n      dup3\n        /* \"#utility.yul\":1571:1637   */\n      0xffffffffffffffffffffffffffffffffffffffffffffffffffffffffffffffff\n        /* \"#utility.yul\":1567:1641   */\n      sub\n        /* \"#utility.yul\":1564:1565   */\n      dup3\n        /* \"#utility.yul\":1561:1642   */\n      gt\n        /* \"#utility.yul\":1558:1665   */\n      iszero\n      tag_73\n      jumpi\n        /* \"#utility.yul\":1645:1663   */\n      tag_74\n      tag_75\n      jump\t// in\n    tag_74:\n        /* \"#utility.yul\":1558:1665   */\n    tag_73:\n        /* \"#utility.yul\":1689:1690   */\n      dup3\n        /* \"#utility.yul\":1686:1687   */\n      dup3\n        /* \"#utility.yul\":1682:1691   */\n      add\n        /* \"#utility.yul\":1675:1691   */\n      swap1\n      pop\n        /* \"#utility.yul\":1392:1697   */\n      swap3\n      swap2\n      pop\n      pop\n      jump\t// out\n        /* \"#utility.yul\":1703:1780   */\n    tag_65:\n        /* \"#utility.yul\":1740:1747   */\n      0x00\n        /* \"#utility.yul\":1769:1774   */\n      dup2\n        /* \"#utility.yul\":1758:1774   */\n      swap1\n      pop\n        /* \"#utility.yul\":1703:1780   */\n      swap2\n      swap1\n      pop\n      jump\t// out\n        /* \"#utility.yul\":1786:1872   */\n    tag_77:\n        /* \"#utility.yul\":1821:1828   */\n      0x00\n        /* \"#utility.yul\":1861:1865   */\n      0xff\n        /* \"#utility.yul\":1854:1859   */\n      dup3\n        /* \"#utility.yul\":1850:1866   */\n      and\n        /* \"#utility.yul\":1839:1866   */\n      swap1\n      pop\n        /* \"#utility.yul\":1786:1872   */\n      swap2\n      swap1\n      pop\n      jump\t// out\n        /* \"#utility.yul\":1878:2058   */\n    tag_75:\n        /* \"#utility.yul\":1926:2003   */\n      0x4e487b7100000000000000000000000000000000000000000000000000000000\n        /* \"#utility.yul\":1923:1924   */\n      0x00\n        /* \"#utility.yul\":1916:2004   */\n      mstore\n        /* \"#utility.yul\":2023:2027   */\n      0x11\n        /* \"#utility.yul\":2020:2021   */\n      0x04\n        /* \"#utility.yul\":2013:2028   */\n      mstore\n        /* \"#utility.yul\":2047:2051   */\n      0x24\n        /* \"#utility.yul\":2044:2045   */\n      0x00\n        /* \"#utility.yul\":2037:2052   */\n      revert\n        /* \"#utility.yul\":2187:2304   */\n    tag_56:\n        /* \"#utility.yul\":2296:2297   */\n      0x00\n        /* \"#utility.yul\":2293:2294   */\n      dup1\n        /* \"#utility.yul\":2286:2298   */\n      revert\n        /* \"#utility.yul\":2310:2432   */\n    tag_48:\n        /* \"#utility.yul\":2383:2407   */\n      tag_84\n        /* \"#utility.yul\":2401:2406   */\n      dup2\n        /* \"#utility.yul\":2383:2407   */\n      tag_65\n      jump\t// in\n    tag_84:\n        /* \"#utility.yul\":2376:2381   */\n      dup2\n        /* \"#utility.yul\":2373:2408   */\n      eq\n        /* \"#utility.yul\":2363:2426   */\n      tag_85\n      jumpi\n        /* \"#utility.yul\":2422:2423   */\n      0x00\n        /* \"#utility.yul\":2419:2420   */\n      dup1\n        /* \"#utility.yul\":2412:2424   */\n      revert\n        /* \"#utility.yul\":2363:2426   */\n    tag_85:\n        /* \"#utility.yul\":2310:2432   */\n      pop\n      jump\t// out\n        /* \"#utility.yul\":2438:2556   */\n    tag_52:\n        /* \"#utility.yul\":2509:2531   */\n      tag_87\n        /* \"#utility.yul\":2525:2530   */\n      dup2\n        /* \"#utility.yul\":2509:2531   */\n      tag_77\n      jump\t// in\n    tag_87:\n        /* \"#utility.yul\":2502:2507   */\n      dup2\n        /* \"#utility.yul\":2499:2532   */\n      eq\n        /* \"#utility.yul\":2489:2550   */\n      tag_88\n      jumpi\n        /* \"#utility.yul\":2546:2547   */\n      0x00\n        /* \"#utility.yul\":2543:2544   */\n      dup1\n        /* \"#utility.yul\":2536:2548   */\n      revert\n        /* \"#utility.yul\":2489:2550   */\n    tag_88:\n        /* \"#utility.yul\":2438:2556   */\n      pop\n      jump\t// out\n\n    auxdata: 0xa2646970667358221220f51d3b48abe2d7dc4e5fa2c998418c8823562bc6f8eca208e7cd32591423562164736f6c63430008070033\n}\n",
				"bytecode": {
					"linkReferences": {},
					"object": "608060405234801561001057600080fd5b506103a8806100206000396000f3fe6080604052600436106100555760003560e01c806312065fe01461005a5780632e64cec114610085578063543df080146100b05780636057361d146100ba578063a04c797f146100e3578063ac446002146100ff575b600080fd5b34801561006657600080fd5b5061006f610116565b60405161007c9190610288565b60405180910390f35b34801561009157600080fd5b5061009a61011e565b6040516100a79190610288565b60405180910390f35b6100b8610127565b005b3480156100c657600080fd5b506100e160048036038101906100dc919061021f565b610142565b005b6100fd60048036038101906100f8919061024c565b61014c565b005b34801561010b57600080fd5b5061011461019f565b005b600047905090565b60008054905090565b346001600082825461013991906102a3565b92505081905550565b8060008190555050565b60003390508073ffffffffffffffffffffffffffffffffffffffff166108fc8360ff169081150290604051600060405180830381858888f1935050505015801561019a573d6000803e3d6000fd5b505050565b60003390508073ffffffffffffffffffffffffffffffffffffffff166108fc6101c6610116565b9081150290604051600060405180830381858888f193505050501580156101f1573d6000803e3d6000fd5b5050565b60008135905061020481610344565b92915050565b6000813590506102198161035b565b92915050565b6000602082840312156102355761023461033f565b5b6000610243848285016101f5565b91505092915050565b6000602082840312156102625761026161033f565b5b60006102708482850161020a565b91505092915050565b610282816102f9565b82525050565b600060208201905061029d6000830184610279565b92915050565b60006102ae826102f9565b91506102b9836102f9565b9250827fffffffffffffffffffffffffffffffffffffffffffffffffffffffffffffffff038211156102ee576102ed610310565b5b828201905092915050565b6000819050919050565b600060ff82169050919050565b7f4e487b7100000000000000000000000000000000000000000000000000000000600052601160045260246000fd5b600080fd5b61034d816102f9565b811461035857600080fd5b50565b61036481610303565b811461036f57600080fd5b5056fea2646970667358221220f51d3b48abe2d7dc4e5fa2c998418c8823562bc6f8eca208e7cd32591423562164736f6c63430008070033",
					"opcodes": "PUSH1 0x80 PUSH1 0x40 MSTORE CALLVALUE DUP1 ISZERO PUSH2 0x10 JUMPI PUSH1 0x0 DUP1 REVERT JUMPDEST POP PUSH2 0x3A8 DUP1 PUSH2 0x20 PUSH1 0x0 CODECOPY PUSH1 0x0 RETURN INVALID PUSH1 0x80 PUSH1 0x40 MSTORE PUSH1 0x4 CALLDATASIZE LT PUSH2 0x55 JUMPI PUSH1 0x0 CALLDATALOAD PUSH1 0xE0 SHR DUP1 PUSH4 0x12065FE0 EQ PUSH2 0x5A JUMPI DUP1 PUSH4 0x2E64CEC1 EQ PUSH2 0x85 JUMPI DUP1 PUSH4 0x543DF080 EQ PUSH2 0xB0 JUMPI DUP1 PUSH4 0x6057361D EQ PUSH2 0xBA JUMPI DUP1 PUSH4 0xA04C797F EQ PUSH2 0xE3 JUMPI DUP1 PUSH4 0xAC446002 EQ PUSH2 0xFF JUMPI JUMPDEST PUSH1 0x0 DUP1 REVERT JUMPDEST CALLVALUE DUP1 ISZERO PUSH2 0x66 JUMPI PUSH1 0x0 DUP1 REVERT JUMPDEST POP PUSH2 0x6F PUSH2 0x116 JUMP JUMPDEST PUSH1 0x40 MLOAD PUSH2 0x7C SWAP2 SWAP1 PUSH2 0x288 JUMP JUMPDEST PUSH1 0x40 MLOAD DUP1 SWAP2 SUB SWAP1 RETURN JUMPDEST CALLVALUE DUP1 ISZERO PUSH2 0x91 JUMPI PUSH1 0x0 DUP1 REVERT JUMPDEST POP PUSH2 0x9A PUSH2 0x11E JUMP JUMPDEST PUSH1 0x40 MLOAD PUSH2 0xA7 SWAP2 SWAP1 PUSH2 0x288 JUMP JUMPDEST PUSH1 0x40 MLOAD DUP1 SWAP2 SUB SWAP1 RETURN JUMPDEST PUSH2 0xB8 PUSH2 0x127 JUMP JUMPDEST STOP JUMPDEST CALLVALUE DUP1 ISZERO PUSH2 0xC6 JUMPI PUSH1 0x0 DUP1 REVERT JUMPDEST POP PUSH2 0xE1 PUSH1 0x4 DUP1 CALLDATASIZE SUB DUP2 ADD SWAP1 PUSH2 0xDC SWAP2 SWAP1 PUSH2 0x21F JUMP JUMPDEST PUSH2 0x142 JUMP JUMPDEST STOP JUMPDEST PUSH2 0xFD PUSH1 0x4 DUP1 CALLDATASIZE SUB DUP2 ADD SWAP1 PUSH2 0xF8 SWAP2 SWAP1 PUSH2 0x24C JUMP JUMPDEST PUSH2 0x14C JUMP JUMPDEST STOP JUMPDEST CALLVALUE DUP1 ISZERO PUSH2 0x10B JUMPI PUSH1 0x0 DUP1 REVERT JUMPDEST POP PUSH2 0x114 PUSH2 0x19F JUMP JUMPDEST STOP JUMPDEST PUSH1 0x0 SELFBALANCE SWAP1 POP SWAP1 JUMP JUMPDEST PUSH1 0x0 DUP1 SLOAD SWAP1 POP SWAP1 JUMP JUMPDEST CALLVALUE PUSH1 0x1 PUSH1 0x0 DUP3 DUP3 SLOAD PUSH2 0x139 SWAP2 SWAP1 PUSH2 0x2A3 JUMP JUMPDEST SWAP3 POP POP DUP2 SWAP1 SSTORE POP JUMP JUMPDEST DUP1 PUSH1 0x0 DUP2 SWAP1 SSTORE POP POP JUMP JUMPDEST PUSH1 0x0 CALLER SWAP1 POP DUP1 PUSH20 0xFFFFFFFFFFFFFFFFFFFFFFFFFFFFFFFFFFFFFFFF AND PUSH2 0x8FC DUP4 PUSH1 0xFF AND SWAP1 DUP2 ISZERO MUL SWAP1 PUSH1 0x40 MLOAD PUSH1 0x0 PUSH1 0x40 MLOAD DUP1 DUP4 SUB DUP2 DUP6 DUP9 DUP9 CALL SWAP4 POP POP POP POP ISZERO DUP1 ISZERO PUSH2 0x19A JUMPI RETURNDATASIZE PUSH1 0x0 DUP1 RETURNDATACOPY RETURNDATASIZE PUSH1 0x0 REVERT JUMPDEST POP POP POP JUMP JUMPDEST PUSH1 0x0 CALLER SWAP1 POP DUP1 PUSH20 0xFFFFFFFFFFFFFFFFFFFFFFFFFFFFFFFFFFFFFFFF AND PUSH2 0x8FC PUSH2 0x1C6 PUSH2 0x116 JUMP JUMPDEST SWAP1 DUP2 ISZERO MUL SWAP1 PUSH1 0x40 MLOAD PUSH1 0x0 PUSH1 0x40 MLOAD DUP1 DUP4 SUB DUP2 DUP6 DUP9 DUP9 CALL SWAP4 POP POP POP POP ISZERO DUP1 ISZERO PUSH2 0x1F1 JUMPI RETURNDATASIZE PUSH1 0x0 DUP1 RETURNDATACOPY RETURNDATASIZE PUSH1 0x0 REVERT JUMPDEST POP POP JUMP JUMPDEST PUSH1 0x0 DUP2 CALLDATALOAD SWAP1 POP PUSH2 0x204 DUP2 PUSH2 0x344 JUMP JUMPDEST SWAP3 SWAP2 POP POP JUMP JUMPDEST PUSH1 0x0 DUP2 CALLDATALOAD SWAP1 POP PUSH2 0x219 DUP2 PUSH2 0x35B JUMP JUMPDEST SWAP3 SWAP2 POP POP JUMP JUMPDEST PUSH1 0x0 PUSH1 0x20 DUP3 DUP5 SUB SLT ISZERO PUSH2 0x235 JUMPI PUSH2 0x234 PUSH2 0x33F JUMP JUMPDEST JUMPDEST PUSH1 0x0 PUSH2 0x243 DUP5 DUP3 DUP6 ADD PUSH2 0x1F5 JUMP JUMPDEST SWAP2 POP POP SWAP3 SWAP2 POP POP JUMP JUMPDEST PUSH1 0x0 PUSH1 0x20 DUP3 DUP5 SUB SLT ISZERO PUSH2 0x262 JUMPI PUSH2 0x261 PUSH2 0x33F JUMP JUMPDEST JUMPDEST PUSH1 0x0 PUSH2 0x270 DUP5 DUP3 DUP6 ADD PUSH2 0x20A JUMP JUMPDEST SWAP2 POP POP SWAP3 SWAP2 POP POP JUMP JUMPDEST PUSH2 0x282 DUP2 PUSH2 0x2F9 JUMP JUMPDEST DUP3 MSTORE POP POP JUMP JUMPDEST PUSH1 0x0 PUSH1 0x20 DUP3 ADD SWAP1 POP PUSH2 0x29D PUSH1 0x0 DUP4 ADD DUP5 PUSH2 0x279 JUMP JUMPDEST SWAP3 SWAP2 POP POP JUMP JUMPDEST PUSH1 0x0 PUSH2 0x2AE DUP3 PUSH2 0x2F9 JUMP JUMPDEST SWAP2 POP PUSH2 0x2B9 DUP4 PUSH2 0x2F9 JUMP JUMPDEST SWAP3 POP DUP3 PUSH32 0xFFFFFFFFFFFFFFFFFFFFFFFFFFFFFFFFFFFFFFFFFFFFFFFFFFFFFFFFFFFFFFFF SUB DUP3 GT ISZERO PUSH2 0x2EE JUMPI PUSH2 0x2ED PUSH2 0x310 JUMP JUMPDEST JUMPDEST DUP3 DUP3 ADD SWAP1 POP SWAP3 SWAP2 POP POP JUMP JUMPDEST PUSH1 0x0 DUP2 SWAP1 POP SWAP2 SWAP1 POP JUMP JUMPDEST PUSH1 0x0 PUSH1 0xFF DUP3 AND SWAP1 POP SWAP2 SWAP1 POP JUMP JUMPDEST PUSH32 0x4E487B7100000000000000000000000000000000000000000000000000000000 PUSH1 0x0 MSTORE PUSH1 0x11 PUSH1 0x4 MSTORE PUSH1 0x24 PUSH1 0x0 REVERT JUMPDEST PUSH1 0x0 DUP1 REVERT JUMPDEST PUSH2 0x34D DUP2 PUSH2 0x2F9 JUMP JUMPDEST DUP2 EQ PUSH2 0x358 JUMPI PUSH1 0x0 DUP1 REVERT JUMPDEST POP JUMP JUMPDEST PUSH2 0x364 DUP2 PUSH2 0x303 JUMP JUMPDEST DUP2 EQ PUSH2 0x36F JUMPI PUSH1 0x0 DUP1 REVERT JUMPDEST POP JUMP INVALID LOG2 PUSH5 0x6970667358 0x22 SLT KECCAK256 CREATE2 SAR EXTCODESIZE BASEFEE 0xAB 0xE2 0xD7 0xDC 0x4E 0x5F LOG2 0xC9 SWAP9 COINBASE DUP13 DUP9 0x23 JUMP 0x2B 0xC6 0xF8 0xEC LOG2 ADDMOD 0xE7 0xCD ORIGIN MSIZE EQ 0x23 JUMP 0x21 PUSH5 0x736F6C6343 STOP ADDMOD SMOD STOP CALLER "
				},
				"gasEstimates": {
					"creation": {
						"codeDepositCost": "187200",
						"executionCost": "232",
						"totalCost": "187432"
					},
					"external": {
						"dice(uint8)": "infinite",
						"getBalance()": "317",
						"refil()": "infinite",
						"retrieve()": "2437",
						"store(uint256)": "22564",
						"withdrawMoney()": "infinite"
					}
				},
				"methodIdentifiers": {
					"dice(uint8)": "a04c797f",
					"getBalance()": "12065fe0",
					"refil()": "543df080",
					"retrieve()": "2e64cec1",
					"store(uint256)": "6057361d",
					"withdrawMoney()": "ac446002"
				}
			},
			"storageLayout": {
				"storage": [
					{
						"astId": 3,
						"contract": "dice.sol:Dice",
						"label": "number",
						"offset": 0,
						"slot": "0",
						"type": "t_uint256"
					},
					{
						"astId": 5,
						"contract": "dice.sol:Dice",
						"label": "balance",
						"offset": 0,
						"slot": "1",
						"type": "t_uint256"
					}
				],
				"types": {
					"t_uint256": {
						"encoding": "inplace",
						"label": "uint256",
						"numberOfBytes": "32"
					}
				}
			},
			"userdoc": {
				"kind": "user",
				"methods": {},
				"version": 1
			}
		}
	}
}