{
	"dice.sol": {
		"Dice": {
			"abi": [
				{
					"inputs": [],
					"name": "dice",
					"outputs": [],
					"stateMutability": "payable",
					"type": "function"
				},
				{
					"inputs": [],
					"name": "getBalance",
					"outputs": [
						{
							"internalType": "uint256",
							"name": "",
							"type": "uint256"
						}
					],
					"stateMutability": "view",
					"type": "function"
				},
				{
					"inputs": [],
					"name": "randomDice",
					"outputs": [
						{
							"internalType": "uint256",
							"name": "",
							"type": "uint256"
						}
					],
					"stateMutability": "view",
					"type": "function"
				},
				{
					"inputs": [],
					"name": "refil",
					"outputs": [],
					"stateMutability": "payable",
					"type": "function"
				},
				{
					"inputs": [],
					"name": "retrieve",
					"outputs": [
						{
							"internalType": "uint256",
							"name": "",
							"type": "uint256"
						}
					],
					"stateMutability": "view",
					"type": "function"
				},
				{
					"inputs": [
						{
							"internalType": "uint256",
							"name": "num",
							"type": "uint256"
						}
					],
					"name": "store",
					"outputs": [],
					"stateMutability": "nonpayable",
					"type": "function"
				},
				{
					"inputs": [],
					"name": "withdrawMoney",
					"outputs": [],
					"stateMutability": "nonpayable",
					"type": "function"
				}
			],
			"devdoc": {
				"custom:dev-run-script": "./scripts/deploy_with_ethers.ts",
				"details": "Store & retrieve value in a variable",
				"kind": "dev",
				"methods": {
					"retrieve()": {
						"details": "Return value ",
						"returns": {
							"_0": "value of 'number'"
						}
					},
					"store(uint256)": {
						"details": "Store value in variable",
						"params": {
							"num": "value to store"
						}
					}
				},
				"title": "Storage",
				"version": 1
			},
			"evm": {
				"assembly": "    /* \"dice.sol\":199:1420  contract Dice {... */\n  mstore(0x40, 0x80)\n  callvalue\n  dup1\n  iszero\n  tag_1\n  jumpi\n  0x00\n  dup1\n  revert\ntag_1:\n  pop\n  dataSize(sub_0)\n  dup1\n  dataOffset(sub_0)\n  0x00\n  codecopy\n  0x00\n  return\nstop\n\nsub_0: assembly {\n        /* \"dice.sol\":199:1420  contract Dice {... */\n      mstore(0x40, 0x80)\n      jumpi(tag_1, lt(calldatasize, 0x04))\n      shr(0xe0, calldataload(0x00))\n      dup1\n      0x569f1bfc\n      gt\n      tag_9\n      jumpi\n      dup1\n      0x569f1bfc\n      eq\n      tag_5\n      jumpi\n      dup1\n      0x6057361d\n      eq\n      tag_6\n      jumpi\n      dup1\n      0xa7fd2d6b\n      eq\n      tag_7\n      jumpi\n      dup1\n      0xac446002\n      eq\n      tag_8\n      jumpi\n      jump(tag_1)\n    tag_9:\n      dup1\n      0x12065fe0\n      eq\n      tag_2\n      jumpi\n      dup1\n      0x2e64cec1\n      eq\n      tag_3\n      jumpi\n      dup1\n      0x543df080\n      eq\n      tag_4\n      jumpi\n    tag_1:\n      0x00\n      dup1\n      revert\n        /* \"dice.sol\":648:741  function getBalance() public view returns(uint) {... */\n    tag_2:\n      callvalue\n      dup1\n      iszero\n      tag_10\n      jumpi\n      0x00\n      dup1\n      revert\n    tag_10:\n      pop\n      tag_11\n      tag_12\n      jump\t// in\n    tag_11:\n      mload(0x40)\n      tag_13\n      swap2\n      swap1\n      tag_14\n      jump\t// in\n    tag_13:\n      mload(0x40)\n      dup1\n      swap2\n      sub\n      swap1\n      return\n        /* \"dice.sol\":489:568  function retrieve() public view returns (uint256){... */\n    tag_3:\n      callvalue\n      dup1\n      iszero\n      tag_15\n      jumpi\n      0x00\n      dup1\n      revert\n    tag_15:\n      pop\n      tag_16\n      tag_17\n      jump\t// in\n    tag_16:\n      mload(0x40)\n      tag_18\n      swap2\n      swap1\n      tag_14\n      jump\t// in\n    tag_18:\n      mload(0x40)\n      dup1\n      swap2\n      sub\n      swap1\n      return\n        /* \"dice.sol\":574:643  function refil() public payable {... */\n    tag_4:\n      tag_19\n      tag_20\n      jump\t// in\n    tag_19:\n      stop\n        /* \"dice.sol\":875:988  function dice() public payable {... */\n    tag_5:\n      tag_21\n      tag_22\n      jump\t// in\n    tag_21:\n      stop\n        /* \"dice.sol\":344:408  function store(uint256 num) public {... */\n    tag_6:\n      callvalue\n      dup1\n      iszero\n      tag_23\n      jumpi\n      0x00\n      dup1\n      revert\n    tag_23:\n      pop\n      tag_24\n      0x04\n      dup1\n      calldatasize\n      sub\n      dup2\n      add\n      swap1\n      tag_25\n      swap2\n      swap1\n      tag_26\n      jump\t// in\n    tag_25:\n      tag_27\n      jump\t// in\n    tag_24:\n      stop\n        /* \"dice.sol\":993:1416  function randomDice() public view returns (uint) {... */\n    tag_7:\n      callvalue\n      dup1\n      iszero\n      tag_28\n      jumpi\n      0x00\n      dup1\n      revert\n    tag_28:\n      pop\n      tag_29\n      tag_30\n      jump\t// in\n    tag_29:\n      mload(0x40)\n      tag_31\n      swap2\n      swap1\n      tag_14\n      jump\t// in\n    tag_31:\n      mload(0x40)\n      dup1\n      swap2\n      sub\n      swap1\n      return\n        /* \"dice.sol\":746:870  function withdrawMoney() public {... */\n    tag_8:\n      callvalue\n      dup1\n      iszero\n      tag_32\n      jumpi\n      0x00\n      dup1\n      revert\n    tag_32:\n      pop\n      tag_33\n      tag_34\n      jump\t// in\n    tag_33:\n      stop\n        /* \"dice.sol\":648:741  function getBalance() public view returns(uint) {... */\n    tag_12:\n        /* \"dice.sol\":690:694  uint */\n      0x00\n        /* \"dice.sol\":713:734  address(this).balance */\n      selfbalance\n        /* \"dice.sol\":706:734  return address(this).balance */\n      swap1\n      pop\n        /* \"dice.sol\":648:741  function getBalance() public view returns(uint) {... */\n      swap1\n      jump\t// out\n        /* \"dice.sol\":489:568  function retrieve() public view returns (uint256){... */\n    tag_17:\n        /* \"dice.sol\":530:537  uint256 */\n      0x00\n        /* \"dice.sol\":555:561  number */\n      dup1\n      sload\n        /* \"dice.sol\":548:561  return number */\n      swap1\n      pop\n        /* \"dice.sol\":489:568  function retrieve() public view returns (uint256){... */\n      swap1\n      jump\t// out\n        /* \"dice.sol\":574:643  function refil() public payable {... */\n    tag_20:\n        /* \"dice.sol\":627:636  msg.value */\n      callvalue\n        /* \"dice.sol\":616:623  balance */\n      0x01\n      0x00\n        /* \"dice.sol\":616:636  balance += msg.value */\n      dup3\n      dup3\n      sload\n      tag_38\n      swap2\n      swap1\n      tag_39\n      jump\t// in\n    tag_38:\n      swap3\n      pop\n      pop\n      dup2\n      swap1\n      sstore\n      pop\n        /* \"dice.sol\":574:643  function refil() public payable {... */\n      jump\t// out\n        /* \"dice.sol\":875:988  function dice() public payable {... */\n    tag_22:\n        /* \"dice.sol\":937:946  3.5 ether */\n      0x30927f74c9de0000\n        /* \"dice.sol\":924:933  msg.value */\n      callvalue\n        /* \"dice.sol\":924:946  msg.value != 3.5 ether */\n      eq\n      iszero\n        /* \"dice.sol\":916:981  require(msg.value != 3.5 ether, \"payment value has to 3.5 ether\") */\n      tag_41\n      jumpi\n      mload(0x40)\n      0x08c379a000000000000000000000000000000000000000000000000000000000\n      dup2\n      mstore\n      0x04\n      add\n      tag_42\n      swap1\n      tag_43\n      jump\t// in\n    tag_42:\n      mload(0x40)\n      dup1\n      swap2\n      sub\n      swap1\n      revert\n    tag_41:\n        /* \"dice.sol\":875:988  function dice() public payable {... */\n      jump\t// out\n        /* \"dice.sol\":344:408  function store(uint256 num) public {... */\n    tag_27:\n        /* \"dice.sol\":398:401  num */\n      dup1\n        /* \"dice.sol\":389:395  number */\n      0x00\n        /* \"dice.sol\":389:401  number = num */\n      dup2\n      swap1\n      sstore\n      pop\n        /* \"dice.sol\":344:408  function store(uint256 num) public {... */\n      pop\n      jump\t// out\n        /* \"dice.sol\":993:1416  function randomDice() public view returns (uint) {... */\n    tag_30:\n        /* \"dice.sol\":1036:1040  uint */\n      0x00\n        /* \"dice.sol\":1048:1060  uint256 seed */\n      dup1\n        /* \"dice.sol\":1348:1360  block.number */\n      number\n        /* \"dice.sol\":1320:1335  block.timestamp */\n      timestamp\n        /* \"dice.sol\":1302:1312  msg.sender */\n      caller\n        /* \"dice.sol\":1285:1313  abi.encodePacked(msg.sender) */\n      add(0x20, mload(0x40))\n      tag_46\n      swap2\n      swap1\n      tag_47\n      jump\t// in\n    tag_46:\n      mload(0x40)\n      0x20\n      dup2\n      dup4\n      sub\n      sub\n      dup2\n      mstore\n      swap1\n      0x40\n      mstore\n        /* \"dice.sol\":1275:1314  keccak256(abi.encodePacked(msg.sender)) */\n      dup1\n      mload\n      swap1\n      0x20\n      add\n      keccak256\n        /* \"dice.sol\":1267:1315  uint256(keccak256(abi.encodePacked(msg.sender))) */\n      0x00\n      shr\n        /* \"dice.sol\":1266:1336  (uint256(keccak256(abi.encodePacked(msg.sender)))) / (block.timestamp) */\n      tag_48\n      swap2\n      swap1\n      tag_49\n      jump\t// in\n    tag_48:\n        /* \"dice.sol\":1239:1253  block.gaslimit */\n      gaslimit\n        /* \"dice.sol\":1211:1226  block.timestamp */\n      timestamp\n        /* \"dice.sol\":1189:1203  block.coinbase */\n      coinbase\n        /* \"dice.sol\":1172:1204  abi.encodePacked(block.coinbase) */\n      add(0x20, mload(0x40))\n      tag_50\n      swap2\n      swap1\n      tag_51\n      jump\t// in\n    tag_50:\n      mload(0x40)\n      0x20\n      dup2\n      dup4\n      sub\n      sub\n      dup2\n      mstore\n      swap1\n      0x40\n      mstore\n        /* \"dice.sol\":1162:1205  keccak256(abi.encodePacked(block.coinbase)) */\n      dup1\n      mload\n      swap1\n      0x20\n      add\n      keccak256\n        /* \"dice.sol\":1154:1206  uint256(keccak256(abi.encodePacked(block.coinbase))) */\n      0x00\n      shr\n        /* \"dice.sol\":1153:1227  (uint256(keccak256(abi.encodePacked(block.coinbase)))) / (block.timestamp) */\n      tag_52\n      swap2\n      swap1\n      tag_49\n      jump\t// in\n    tag_52:\n        /* \"dice.sol\":1125:1141  block.difficulty */\n      difficulty\n        /* \"dice.sol\":1107:1122  block.timestamp */\n      timestamp\n        /* \"dice.sol\":1107:1141  block.timestamp + block.difficulty */\n      tag_53\n      swap2\n      swap1\n      tag_39\n      jump\t// in\n    tag_53:\n        /* \"dice.sol\":1107:1228  block.timestamp + block.difficulty +... */\n      tag_54\n      swap2\n      swap1\n      tag_39\n      jump\t// in\n    tag_54:\n        /* \"dice.sol\":1107:1253  block.timestamp + block.difficulty +... */\n      tag_55\n      swap2\n      swap1\n      tag_39\n      jump\t// in\n    tag_55:\n        /* \"dice.sol\":1107:1337  block.timestamp + block.difficulty +... */\n      tag_56\n      swap2\n      swap1\n      tag_39\n      jump\t// in\n    tag_56:\n        /* \"dice.sol\":1107:1360  block.timestamp + block.difficulty +... */\n      tag_57\n      swap2\n      swap1\n      tag_39\n      jump\t// in\n    tag_57:\n        /* \"dice.sol\":1081:1366  abi.encodePacked(... */\n      add(0x20, mload(0x40))\n      tag_58\n      swap2\n      swap1\n      tag_59\n      jump\t// in\n    tag_58:\n      mload(0x40)\n      0x20\n      dup2\n      dup4\n      sub\n      sub\n      dup2\n      mstore\n      swap1\n      0x40\n      mstore\n        /* \"dice.sol\":1071:1367  keccak256(abi.encodePacked(... */\n      dup1\n      mload\n      swap1\n      0x20\n      add\n      keccak256\n        /* \"dice.sol\":1063:1368  uint256(keccak256(abi.encodePacked(... */\n      0x00\n      shr\n        /* \"dice.sol\":1048:1368  uint256 seed = uint256(keccak256(abi.encodePacked(... */\n      swap1\n      pop\n        /* \"dice.sol\":1407:1411  1000 */\n      0x03e8\n        /* \"dice.sol\":1399:1403  1000 */\n      dup1\n        /* \"dice.sol\":1392:1396  seed */\n      dup3\n        /* \"dice.sol\":1392:1403  seed / 1000 */\n      tag_60\n      swap2\n      swap1\n      tag_49\n      jump\t// in\n    tag_60:\n        /* \"dice.sol\":1391:1411  (seed / 1000) * 1000 */\n      tag_61\n      swap2\n      swap1\n      tag_62\n      jump\t// in\n    tag_61:\n        /* \"dice.sol\":1383:1387  seed */\n      dup2\n        /* \"dice.sol\":1383:1412  seed - ((seed / 1000) * 1000) */\n      tag_63\n      swap2\n      swap1\n      tag_64\n      jump\t// in\n    tag_63:\n        /* \"dice.sol\":1375:1413  return (seed - ((seed / 1000) * 1000)) */\n      swap2\n      pop\n      pop\n        /* \"dice.sol\":993:1416  function randomDice() public view returns (uint) {... */\n      swap1\n      jump\t// out\n        /* \"dice.sol\":746:870  function withdrawMoney() public {... */\n    tag_34:\n        /* \"dice.sol\":788:806  address payable to */\n      0x00\n        /* \"dice.sol\":817:827  msg.sender */\n      caller\n        /* \"dice.sol\":788:828  address payable to = payable(msg.sender) */\n      swap1\n      pop\n        /* \"dice.sol\":838:840  to */\n      dup1\n        /* \"dice.sol\":838:849  to.transfer */\n      0xffffffffffffffffffffffffffffffffffffffff\n      and\n        /* \"dice.sol\":838:863  to.transfer(getBalance()) */\n      0x08fc\n        /* \"dice.sol\":850:862  getBalance() */\n      tag_66\n        /* \"dice.sol\":850:860  getBalance */\n      tag_12\n        /* \"dice.sol\":850:862  getBalance() */\n      jump\t// in\n    tag_66:\n        /* \"dice.sol\":838:863  to.transfer(getBalance()) */\n      swap1\n      dup2\n      iszero\n      mul\n      swap1\n      mload(0x40)\n      0x00\n      mload(0x40)\n      dup1\n      dup4\n      sub\n      dup2\n      dup6\n      dup9\n      dup9\n      call\n      swap4\n      pop\n      pop\n      pop\n      pop\n      iszero\n      dup1\n      iszero\n      tag_68\n      jumpi\n      returndatasize\n      0x00\n      dup1\n      returndatacopy\n      revert(0x00, returndatasize)\n    tag_68:\n      pop\n        /* \"dice.sol\":778:870  {... */\n      pop\n        /* \"dice.sol\":746:870  function withdrawMoney() public {... */\n      jump\t// out\n        /* \"#utility.yul\":7:146   */\n    tag_70:\n        /* \"#utility.yul\":53:58   */\n      0x00\n        /* \"#utility.yul\":91:97   */\n      dup2\n        /* \"#utility.yul\":78:98   */\n      calldataload\n        /* \"#utility.yul\":69:98   */\n      swap1\n      pop\n        /* \"#utility.yul\":107:140   */\n      tag_72\n        /* \"#utility.yul\":134:139   */\n      dup2\n        /* \"#utility.yul\":107:140   */\n      tag_73\n      jump\t// in\n    tag_72:\n        /* \"#utility.yul\":7:146   */\n      swap3\n      swap2\n      pop\n      pop\n      jump\t// out\n        /* \"#utility.yul\":152:481   */\n    tag_26:\n        /* \"#utility.yul\":211:217   */\n      0x00\n        /* \"#utility.yul\":260:262   */\n      0x20\n        /* \"#utility.yul\":248:257   */\n      dup3\n        /* \"#utility.yul\":239:246   */\n      dup5\n        /* \"#utility.yul\":235:258   */\n      sub\n        /* \"#utility.yul\":231:263   */\n      slt\n        /* \"#utility.yul\":228:347   */\n      iszero\n      tag_75\n      jumpi\n        /* \"#utility.yul\":266:345   */\n      tag_76\n      tag_77\n      jump\t// in\n    tag_76:\n        /* \"#utility.yul\":228:347   */\n    tag_75:\n        /* \"#utility.yul\":386:387   */\n      0x00\n        /* \"#utility.yul\":411:464   */\n      tag_78\n        /* \"#utility.yul\":456:463   */\n      dup5\n        /* \"#utility.yul\":447:453   */\n      dup3\n        /* \"#utility.yul\":436:445   */\n      dup6\n        /* \"#utility.yul\":432:454   */\n      add\n        /* \"#utility.yul\":411:464   */\n      tag_70\n      jump\t// in\n    tag_78:\n        /* \"#utility.yul\":401:464   */\n      swap2\n      pop\n        /* \"#utility.yul\":357:474   */\n      pop\n        /* \"#utility.yul\":152:481   */\n      swap3\n      swap2\n      pop\n      pop\n      jump\t// out\n        /* \"#utility.yul\":487:676   */\n    tag_79:\n        /* \"#utility.yul\":608:669   */\n      tag_81\n        /* \"#utility.yul\":636:668   */\n      tag_82\n        /* \"#utility.yul\":662:667   */\n      dup3\n        /* \"#utility.yul\":636:668   */\n      tag_83\n      jump\t// in\n    tag_82:\n        /* \"#utility.yul\":608:669   */\n      tag_84\n      jump\t// in\n    tag_81:\n        /* \"#utility.yul\":603:606   */\n      dup3\n        /* \"#utility.yul\":596:670   */\n      mstore\n        /* \"#utility.yul\":487:676   */\n      pop\n      pop\n      jump\t// out\n        /* \"#utility.yul\":682:839   */\n    tag_85:\n        /* \"#utility.yul\":787:832   */\n      tag_87\n        /* \"#utility.yul\":807:831   */\n      tag_88\n        /* \"#utility.yul\":825:830   */\n      dup3\n        /* \"#utility.yul\":807:831   */\n      tag_89\n      jump\t// in\n    tag_88:\n        /* \"#utility.yul\":787:832   */\n      tag_90\n      jump\t// in\n    tag_87:\n        /* \"#utility.yul\":782:785   */\n      dup3\n        /* \"#utility.yul\":775:833   */\n      mstore\n        /* \"#utility.yul\":682:839   */\n      pop\n      pop\n      jump\t// out\n        /* \"#utility.yul\":845:1211   */\n    tag_91:\n        /* \"#utility.yul\":987:990   */\n      0x00\n        /* \"#utility.yul\":1008:1075   */\n      tag_93\n        /* \"#utility.yul\":1072:1074   */\n      0x1e\n        /* \"#utility.yul\":1067:1070   */\n      dup4\n        /* \"#utility.yul\":1008:1075   */\n      tag_94\n      jump\t// in\n    tag_93:\n        /* \"#utility.yul\":1001:1075   */\n      swap2\n      pop\n        /* \"#utility.yul\":1084:1177   */\n      tag_95\n        /* \"#utility.yul\":1173:1176   */\n      dup3\n        /* \"#utility.yul\":1084:1177   */\n      tag_96\n      jump\t// in\n    tag_95:\n        /* \"#utility.yul\":1202:1204   */\n      0x20\n        /* \"#utility.yul\":1197:1200   */\n      dup3\n        /* \"#utility.yul\":1193:1205   */\n      add\n        /* \"#utility.yul\":1186:1205   */\n      swap1\n      pop\n        /* \"#utility.yul\":845:1211   */\n      swap2\n      swap1\n      pop\n      jump\t// out\n        /* \"#utility.yul\":1217:1335   */\n    tag_97:\n        /* \"#utility.yul\":1304:1328   */\n      tag_99\n        /* \"#utility.yul\":1322:1327   */\n      dup2\n        /* \"#utility.yul\":1304:1328   */\n      tag_100\n      jump\t// in\n    tag_99:\n        /* \"#utility.yul\":1299:1302   */\n      dup3\n        /* \"#utility.yul\":1292:1329   */\n      mstore\n        /* \"#utility.yul\":1217:1335   */\n      pop\n      pop\n      jump\t// out\n        /* \"#utility.yul\":1341:1498   */\n    tag_101:\n        /* \"#utility.yul\":1446:1491   */\n      tag_103\n        /* \"#utility.yul\":1466:1490   */\n      tag_104\n        /* \"#utility.yul\":1484:1489   */\n      dup3\n        /* \"#utility.yul\":1466:1490   */\n      tag_100\n      jump\t// in\n    tag_104:\n        /* \"#utility.yul\":1446:1491   */\n      tag_105\n      jump\t// in\n    tag_103:\n        /* \"#utility.yul\":1441:1444   */\n      dup3\n        /* \"#utility.yul\":1434:1492   */\n      mstore\n        /* \"#utility.yul\":1341:1498   */\n      pop\n      pop\n      jump\t// out\n        /* \"#utility.yul\":1504:1760   */\n    tag_47:\n        /* \"#utility.yul\":1616:1619   */\n      0x00\n        /* \"#utility.yul\":1631:1706   */\n      tag_107\n        /* \"#utility.yul\":1702:1705   */\n      dup3\n        /* \"#utility.yul\":1693:1699   */\n      dup5\n        /* \"#utility.yul\":1631:1706   */\n      tag_85\n      jump\t// in\n    tag_107:\n        /* \"#utility.yul\":1731:1733   */\n      0x14\n        /* \"#utility.yul\":1726:1729   */\n      dup3\n        /* \"#utility.yul\":1722:1734   */\n      add\n        /* \"#utility.yul\":1715:1734   */\n      swap2\n      pop\n        /* \"#utility.yul\":1751:1754   */\n      dup2\n        /* \"#utility.yul\":1744:1754   */\n      swap1\n      pop\n        /* \"#utility.yul\":1504:1760   */\n      swap3\n      swap2\n      pop\n      pop\n      jump\t// out\n        /* \"#utility.yul\":1766:2054   */\n    tag_51:\n        /* \"#utility.yul\":1894:1897   */\n      0x00\n        /* \"#utility.yul\":1909:2000   */\n      tag_109\n        /* \"#utility.yul\":1996:1999   */\n      dup3\n        /* \"#utility.yul\":1987:1993   */\n      dup5\n        /* \"#utility.yul\":1909:2000   */\n      tag_79\n      jump\t// in\n    tag_109:\n        /* \"#utility.yul\":2025:2027   */\n      0x14\n        /* \"#utility.yul\":2020:2023   */\n      dup3\n        /* \"#utility.yul\":2016:2028   */\n      add\n        /* \"#utility.yul\":2009:2028   */\n      swap2\n      pop\n        /* \"#utility.yul\":2045:2048   */\n      dup2\n        /* \"#utility.yul\":2038:2048   */\n      swap1\n      pop\n        /* \"#utility.yul\":1766:2054   */\n      swap3\n      swap2\n      pop\n      pop\n      jump\t// out\n        /* \"#utility.yul\":2060:2316   */\n    tag_59:\n        /* \"#utility.yul\":2172:2175   */\n      0x00\n        /* \"#utility.yul\":2187:2262   */\n      tag_111\n        /* \"#utility.yul\":2258:2261   */\n      dup3\n        /* \"#utility.yul\":2249:2255   */\n      dup5\n        /* \"#utility.yul\":2187:2262   */\n      tag_101\n      jump\t// in\n    tag_111:\n        /* \"#utility.yul\":2287:2289   */\n      0x20\n        /* \"#utility.yul\":2282:2285   */\n      dup3\n        /* \"#utility.yul\":2278:2290   */\n      add\n        /* \"#utility.yul\":2271:2290   */\n      swap2\n      pop\n        /* \"#utility.yul\":2307:2310   */\n      dup2\n        /* \"#utility.yul\":2300:2310   */\n      swap1\n      pop\n        /* \"#utility.yul\":2060:2316   */\n      swap3\n      swap2\n      pop\n      pop\n      jump\t// out\n        /* \"#utility.yul\":2322:2741   */\n    tag_43:\n        /* \"#utility.yul\":2488:2492   */\n      0x00\n        /* \"#utility.yul\":2526:2528   */\n      0x20\n        /* \"#utility.yul\":2515:2524   */\n      dup3\n        /* \"#utility.yul\":2511:2529   */\n      add\n        /* \"#utility.yul\":2503:2529   */\n      swap1\n      pop\n        /* \"#utility.yul\":2575:2584   */\n      dup2\n        /* \"#utility.yul\":2569:2573   */\n      dup2\n        /* \"#utility.yul\":2565:2585   */\n      sub\n        /* \"#utility.yul\":2561:2562   */\n      0x00\n        /* \"#utility.yul\":2550:2559   */\n      dup4\n        /* \"#utility.yul\":2546:2563   */\n      add\n        /* \"#utility.yul\":2539:2586   */\n      mstore\n        /* \"#utility.yul\":2603:2734   */\n      tag_113\n        /* \"#utility.yul\":2729:2733   */\n      dup2\n        /* \"#utility.yul\":2603:2734   */\n      tag_91\n      jump\t// in\n    tag_113:\n        /* \"#utility.yul\":2595:2734   */\n      swap1\n      pop\n        /* \"#utility.yul\":2322:2741   */\n      swap2\n      swap1\n      pop\n      jump\t// out\n        /* \"#utility.yul\":2747:2969   */\n    tag_14:\n        /* \"#utility.yul\":2840:2844   */\n      0x00\n        /* \"#utility.yul\":2878:2880   */\n      0x20\n        /* \"#utility.yul\":2867:2876   */\n      dup3\n        /* \"#utility.yul\":2863:2881   */\n      add\n        /* \"#utility.yul\":2855:2881   */\n      swap1\n      pop\n        /* \"#utility.yul\":2891:2962   */\n      tag_115\n        /* \"#utility.yul\":2959:2960   */\n      0x00\n        /* \"#utility.yul\":2948:2957   */\n      dup4\n        /* \"#utility.yul\":2944:2961   */\n      add\n        /* \"#utility.yul\":2935:2941   */\n      dup5\n        /* \"#utility.yul\":2891:2962   */\n      tag_97\n      jump\t// in\n    tag_115:\n        /* \"#utility.yul\":2747:2969   */\n      swap3\n      swap2\n      pop\n      pop\n      jump\t// out\n        /* \"#utility.yul\":3056:3225   */\n    tag_94:\n        /* \"#utility.yul\":3140:3151   */\n      0x00\n        /* \"#utility.yul\":3174:3180   */\n      dup3\n        /* \"#utility.yul\":3169:3172   */\n      dup3\n        /* \"#utility.yul\":3162:3181   */\n      mstore\n        /* \"#utility.yul\":3214:3218   */\n      0x20\n        /* \"#utility.yul\":3209:3212   */\n      dup3\n        /* \"#utility.yul\":3205:3219   */\n      add\n        /* \"#utility.yul\":3190:3219   */\n      swap1\n      pop\n        /* \"#utility.yul\":3056:3225   */\n      swap3\n      swap2\n      pop\n      pop\n      jump\t// out\n        /* \"#utility.yul\":3231:3536   */\n    tag_39:\n        /* \"#utility.yul\":3271:3274   */\n      0x00\n        /* \"#utility.yul\":3290:3310   */\n      tag_120\n        /* \"#utility.yul\":3308:3309   */\n      dup3\n        /* \"#utility.yul\":3290:3310   */\n      tag_100\n      jump\t// in\n    tag_120:\n        /* \"#utility.yul\":3285:3310   */\n      swap2\n      pop\n        /* \"#utility.yul\":3324:3344   */\n      tag_121\n        /* \"#utility.yul\":3342:3343   */\n      dup4\n        /* \"#utility.yul\":3324:3344   */\n      tag_100\n      jump\t// in\n    tag_121:\n        /* \"#utility.yul\":3319:3344   */\n      swap3\n      pop\n        /* \"#utility.yul\":3478:3479   */\n      dup3\n        /* \"#utility.yul\":3410:3476   */\n      0xffffffffffffffffffffffffffffffffffffffffffffffffffffffffffffffff\n        /* \"#utility.yul\":3406:3480   */\n      sub\n        /* \"#utility.yul\":3403:3404   */\n      dup3\n        /* \"#utility.yul\":3400:3481   */\n      gt\n        /* \"#utility.yul\":3397:3504   */\n      iszero\n      tag_122\n      jumpi\n        /* \"#utility.yul\":3484:3502   */\n      tag_123\n      tag_124\n      jump\t// in\n    tag_123:\n        /* \"#utility.yul\":3397:3504   */\n    tag_122:\n        /* \"#utility.yul\":3528:3529   */\n      dup3\n        /* \"#utility.yul\":3525:3526   */\n      dup3\n        /* \"#utility.yul\":3521:3530   */\n      add\n        /* \"#utility.yul\":3514:3530   */\n      swap1\n      pop\n        /* \"#utility.yul\":3231:3536   */\n      swap3\n      swap2\n      pop\n      pop\n      jump\t// out\n        /* \"#utility.yul\":3542:3727   */\n    tag_49:\n        /* \"#utility.yul\":3582:3583   */\n      0x00\n        /* \"#utility.yul\":3599:3619   */\n      tag_126\n        /* \"#utility.yul\":3617:3618   */\n      dup3\n        /* \"#utility.yul\":3599:3619   */\n      tag_100\n      jump\t// in\n    tag_126:\n        /* \"#utility.yul\":3594:3619   */\n      swap2\n      pop\n        /* \"#utility.yul\":3633:3653   */\n      tag_127\n        /* \"#utility.yul\":3651:3652   */\n      dup4\n        /* \"#utility.yul\":3633:3653   */\n      tag_100\n      jump\t// in\n    tag_127:\n        /* \"#utility.yul\":3628:3653   */\n      swap3\n      pop\n        /* \"#utility.yul\":3672:3673   */\n      dup3\n        /* \"#utility.yul\":3662:3697   */\n      tag_128\n      jumpi\n        /* \"#utility.yul\":3677:3695   */\n      tag_129\n      tag_130\n      jump\t// in\n    tag_129:\n        /* \"#utility.yul\":3662:3697   */\n    tag_128:\n        /* \"#utility.yul\":3719:3720   */\n      dup3\n        /* \"#utility.yul\":3716:3717   */\n      dup3\n        /* \"#utility.yul\":3712:3721   */\n      div\n        /* \"#utility.yul\":3707:3721   */\n      swap1\n      pop\n        /* \"#utility.yul\":3542:3727   */\n      swap3\n      swap2\n      pop\n      pop\n      jump\t// out\n        /* \"#utility.yul\":3733:4081   */\n    tag_62:\n        /* \"#utility.yul\":3773:3780   */\n      0x00\n        /* \"#utility.yul\":3796:3816   */\n      tag_132\n        /* \"#utility.yul\":3814:3815   */\n      dup3\n        /* \"#utility.yul\":3796:3816   */\n      tag_100\n      jump\t// in\n    tag_132:\n        /* \"#utility.yul\":3791:3816   */\n      swap2\n      pop\n        /* \"#utility.yul\":3830:3850   */\n      tag_133\n        /* \"#utility.yul\":3848:3849   */\n      dup4\n        /* \"#utility.yul\":3830:3850   */\n      tag_100\n      jump\t// in\n    tag_133:\n        /* \"#utility.yul\":3825:3850   */\n      swap3\n      pop\n        /* \"#utility.yul\":4018:4019   */\n      dup2\n        /* \"#utility.yul\":3950:4016   */\n      0xffffffffffffffffffffffffffffffffffffffffffffffffffffffffffffffff\n        /* \"#utility.yul\":3946:4020   */\n      div\n        /* \"#utility.yul\":3943:3944   */\n      dup4\n        /* \"#utility.yul\":3940:4021   */\n      gt\n        /* \"#utility.yul\":3935:3936   */\n      dup3\n        /* \"#utility.yul\":3928:3937   */\n      iszero\n        /* \"#utility.yul\":3921:3938   */\n      iszero\n        /* \"#utility.yul\":3917:4022   */\n      and\n        /* \"#utility.yul\":3914:4045   */\n      iszero\n      tag_134\n      jumpi\n        /* \"#utility.yul\":4025:4043   */\n      tag_135\n      tag_124\n      jump\t// in\n    tag_135:\n        /* \"#utility.yul\":3914:4045   */\n    tag_134:\n        /* \"#utility.yul\":4073:4074   */\n      dup3\n        /* \"#utility.yul\":4070:4071   */\n      dup3\n        /* \"#utility.yul\":4066:4075   */\n      mul\n        /* \"#utility.yul\":4055:4075   */\n      swap1\n      pop\n        /* \"#utility.yul\":3733:4081   */\n      swap3\n      swap2\n      pop\n      pop\n      jump\t// out\n        /* \"#utility.yul\":4087:4278   */\n    tag_64:\n        /* \"#utility.yul\":4127:4131   */\n      0x00\n        /* \"#utility.yul\":4147:4167   */\n      tag_137\n        /* \"#utility.yul\":4165:4166   */\n      dup3\n        /* \"#utility.yul\":4147:4167   */\n      tag_100\n      jump\t// in\n    tag_137:\n        /* \"#utility.yul\":4142:4167   */\n      swap2\n      pop\n        /* \"#utility.yul\":4181:4201   */\n      tag_138\n        /* \"#utility.yul\":4199:4200   */\n      dup4\n        /* \"#utility.yul\":4181:4201   */\n      tag_100\n      jump\t// in\n    tag_138:\n        /* \"#utility.yul\":4176:4201   */\n      swap3\n      pop\n        /* \"#utility.yul\":4220:4221   */\n      dup3\n        /* \"#utility.yul\":4217:4218   */\n      dup3\n        /* \"#utility.yul\":4214:4222   */\n      lt\n        /* \"#utility.yul\":4211:4245   */\n      iszero\n      tag_139\n      jumpi\n        /* \"#utility.yul\":4225:4243   */\n      tag_140\n      tag_124\n      jump\t// in\n    tag_140:\n        /* \"#utility.yul\":4211:4245   */\n    tag_139:\n        /* \"#utility.yul\":4270:4271   */\n      dup3\n        /* \"#utility.yul\":4267:4268   */\n      dup3\n        /* \"#utility.yul\":4263:4272   */\n      sub\n        /* \"#utility.yul\":4255:4272   */\n      swap1\n      pop\n        /* \"#utility.yul\":4087:4278   */\n      swap3\n      swap2\n      pop\n      pop\n      jump\t// out\n        /* \"#utility.yul\":4284:4380   */\n    tag_89:\n        /* \"#utility.yul\":4321:4328   */\n      0x00\n        /* \"#utility.yul\":4350:4374   */\n      tag_142\n        /* \"#utility.yul\":4368:4373   */\n      dup3\n        /* \"#utility.yul\":4350:4374   */\n      tag_143\n      jump\t// in\n    tag_142:\n        /* \"#utility.yul\":4339:4374   */\n      swap1\n      pop\n        /* \"#utility.yul\":4284:4380   */\n      swap2\n      swap1\n      pop\n      jump\t// out\n        /* \"#utility.yul\":4386:4490   */\n    tag_83:\n        /* \"#utility.yul\":4431:4438   */\n      0x00\n        /* \"#utility.yul\":4460:4484   */\n      tag_145\n        /* \"#utility.yul\":4478:4483   */\n      dup3\n        /* \"#utility.yul\":4460:4484   */\n      tag_143\n      jump\t// in\n    tag_145:\n        /* \"#utility.yul\":4449:4484   */\n      swap1\n      pop\n        /* \"#utility.yul\":4386:4490   */\n      swap2\n      swap1\n      pop\n      jump\t// out\n        /* \"#utility.yul\":4496:4622   */\n    tag_143:\n        /* \"#utility.yul\":4533:4540   */\n      0x00\n        /* \"#utility.yul\":4573:4615   */\n      0xffffffffffffffffffffffffffffffffffffffff\n        /* \"#utility.yul\":4566:4571   */\n      dup3\n        /* \"#utility.yul\":4562:4616   */\n      and\n        /* \"#utility.yul\":4551:4616   */\n      swap1\n      pop\n        /* \"#utility.yul\":4496:4622   */\n      swap2\n      swap1\n      pop\n      jump\t// out\n        /* \"#utility.yul\":4628:4705   */\n    tag_100:\n        /* \"#utility.yul\":4665:4672   */\n      0x00\n        /* \"#utility.yul\":4694:4699   */\n      dup2\n        /* \"#utility.yul\":4683:4699   */\n      swap1\n      pop\n        /* \"#utility.yul\":4628:4705   */\n      swap2\n      swap1\n      pop\n      jump\t// out\n        /* \"#utility.yul\":4711:4811   */\n    tag_90:\n        /* \"#utility.yul\":4750:4757   */\n      0x00\n        /* \"#utility.yul\":4779:4805   */\n      tag_149\n        /* \"#utility.yul\":4799:4804   */\n      dup3\n        /* \"#utility.yul\":4779:4805   */\n      tag_150\n      jump\t// in\n    tag_149:\n        /* \"#utility.yul\":4768:4805   */\n      swap1\n      pop\n        /* \"#utility.yul\":4711:4811   */\n      swap2\n      swap1\n      pop\n      jump\t// out\n        /* \"#utility.yul\":4817:4925   */\n    tag_84:\n        /* \"#utility.yul\":4864:4871   */\n      0x00\n        /* \"#utility.yul\":4893:4919   */\n      tag_152\n        /* \"#utility.yul\":4913:4918   */\n      dup3\n        /* \"#utility.yul\":4893:4919   */\n      tag_150\n      jump\t// in\n    tag_152:\n        /* \"#utility.yul\":4882:4919   */\n      swap1\n      pop\n        /* \"#utility.yul\":4817:4925   */\n      swap2\n      swap1\n      pop\n      jump\t// out\n        /* \"#utility.yul\":4931:5025   */\n    tag_150:\n        /* \"#utility.yul\":4970:4977   */\n      0x00\n        /* \"#utility.yul\":4999:5019   */\n      tag_154\n        /* \"#utility.yul\":5013:5018   */\n      dup3\n        /* \"#utility.yul\":4999:5019   */\n      tag_155\n      jump\t// in\n    tag_154:\n        /* \"#utility.yul\":4988:5019   */\n      swap1\n      pop\n        /* \"#utility.yul\":4931:5025   */\n      swap2\n      swap1\n      pop\n      jump\t// out\n        /* \"#utility.yul\":5031:5110   */\n    tag_105:\n        /* \"#utility.yul\":5070:5077   */\n      0x00\n        /* \"#utility.yul\":5099:5104   */\n      dup2\n        /* \"#utility.yul\":5088:5104   */\n      swap1\n      pop\n        /* \"#utility.yul\":5031:5110   */\n      swap2\n      swap1\n      pop\n      jump\t// out\n        /* \"#utility.yul\":5116:5296   */\n    tag_124:\n        /* \"#utility.yul\":5164:5241   */\n      0x4e487b7100000000000000000000000000000000000000000000000000000000\n        /* \"#utility.yul\":5161:5162   */\n      0x00\n        /* \"#utility.yul\":5154:5242   */\n      mstore\n        /* \"#utility.yul\":5261:5265   */\n      0x11\n        /* \"#utility.yul\":5258:5259   */\n      0x04\n        /* \"#utility.yul\":5251:5266   */\n      mstore\n        /* \"#utility.yul\":5285:5289   */\n      0x24\n        /* \"#utility.yul\":5282:5283   */\n      0x00\n        /* \"#utility.yul\":5275:5290   */\n      revert\n        /* \"#utility.yul\":5302:5482   */\n    tag_130:\n        /* \"#utility.yul\":5350:5427   */\n      0x4e487b7100000000000000000000000000000000000000000000000000000000\n        /* \"#utility.yul\":5347:5348   */\n      0x00\n        /* \"#utility.yul\":5340:5428   */\n      mstore\n        /* \"#utility.yul\":5447:5451   */\n      0x12\n        /* \"#utility.yul\":5444:5445   */\n      0x04\n        /* \"#utility.yul\":5437:5452   */\n      mstore\n        /* \"#utility.yul\":5471:5475   */\n      0x24\n        /* \"#utility.yul\":5468:5469   */\n      0x00\n        /* \"#utility.yul\":5461:5476   */\n      revert\n        /* \"#utility.yul\":5611:5728   */\n    tag_77:\n        /* \"#utility.yul\":5720:5721   */\n      0x00\n        /* \"#utility.yul\":5717:5718   */\n      dup1\n        /* \"#utility.yul\":5710:5722   */\n      revert\n        /* \"#utility.yul\":5734:5828   */\n    tag_155:\n        /* \"#utility.yul\":5767:5775   */\n      0x00\n        /* \"#utility.yul\":5815:5820   */\n      dup2\n        /* \"#utility.yul\":5811:5813   */\n      0x60\n        /* \"#utility.yul\":5807:5821   */\n      shl\n        /* \"#utility.yul\":5786:5821   */\n      swap1\n      pop\n        /* \"#utility.yul\":5734:5828   */\n      swap2\n      swap1\n      pop\n      jump\t// out\n        /* \"#utility.yul\":5834:6014   */\n    tag_96:\n        /* \"#utility.yul\":5974:6006   */\n      0x7061796d656e742076616c75652068617320746f20332e352065746865720000\n        /* \"#utility.yul\":5970:5971   */\n      0x00\n        /* \"#utility.yul\":5962:5968   */\n      dup3\n        /* \"#utility.yul\":5958:5972   */\n      add\n        /* \"#utility.yul\":5951:6007   */\n      mstore\n        /* \"#utility.yul\":5834:6014   */\n      pop\n      jump\t// out\n        /* \"#utility.yul\":6020:6142   */\n    tag_73:\n        /* \"#utility.yul\":6093:6117   */\n      tag_165\n        /* \"#utility.yul\":6111:6116   */\n      dup2\n        /* \"#utility.yul\":6093:6117   */\n      tag_100\n      jump\t// in\n    tag_165:\n        /* \"#utility.yul\":6086:6091   */\n      dup2\n        /* \"#utility.yul\":6083:6118   */\n      eq\n        /* \"#utility.yul\":6073:6136   */\n      tag_166\n      jumpi\n        /* \"#utility.yul\":6132:6133   */\n      0x00\n        /* \"#utility.yul\":6129:6130   */\n      dup1\n        /* \"#utility.yul\":6122:6134   */\n      revert\n        /* \"#utility.yul\":6073:6136   */\n    tag_166:\n        /* \"#utility.yul\":6020:6142   */\n      pop\n      jump\t// out\n\n    auxdata: 0xa2646970667358221220286a03582fe9bfa2527a1023ceca4b60fcab50c3a4ab7204ff5791eaf6fbb30764736f6c63430008070033\n}\n",
				"bytecode": {
					"linkReferences": {},
					"object": "608060405234801561001057600080fd5b506106fa806100206000396000f3fe6080604052600436106100705760003560e01c8063569f1bfc1161004e578063569f1bfc146100d55780636057361d146100df578063a7fd2d6b14610108578063ac4460021461013357610070565b806312065fe0146100755780632e64cec1146100a0578063543df080146100cb575b600080fd5b34801561008157600080fd5b5061008a61014a565b6040516100979190610445565b60405180910390f35b3480156100ac57600080fd5b506100b5610152565b6040516100c29190610445565b60405180910390f35b6100d361015b565b005b6100dd610176565b005b3480156100eb57600080fd5b5061010660048036038101906101019190610330565b6101c3565b005b34801561011457600080fd5b5061011d6101cd565b60405161012a9190610445565b60405180910390f35b34801561013f57600080fd5b506101486102c5565b005b600047905090565b60008054905090565b346001600082825461016d9190610471565b92505081905550565b6730927f74c9de00003414156101c1576040517f08c379a00000000000000000000000000000000000000000000000000000000081526004016101b890610425565b60405180910390fd5b565b8060008190555050565b6000804342336040516020016101e391906103d4565b6040516020818303038152906040528051906020012060001c61020691906104c7565b45424160405160200161021991906103ef565b6040516020818303038152906040528051906020012060001c61023c91906104c7565b44426102489190610471565b6102529190610471565b61025c9190610471565b6102669190610471565b6102709190610471565b604051602001610280919061040a565b6040516020818303038152906040528051906020012060001c90506103e880826102aa91906104c7565b6102b491906104f8565b816102bf9190610552565b91505090565b60003390508073ffffffffffffffffffffffffffffffffffffffff166108fc6102ec61014a565b9081150290604051600060405180830381858888f19350505050158015610317573d6000803e3d6000fd5b5050565b60008135905061032a816106ad565b92915050565b60006020828403121561034657610345610672565b5b60006103548482850161031b565b91505092915050565b61036e61036982610598565b6105e6565b82525050565b61038561038082610586565b6105d4565b82525050565b6000610398601e83610460565b91506103a382610684565b602082019050919050565b6103b7816105ca565b82525050565b6103ce6103c9826105ca565b61060a565b82525050565b60006103e08284610374565b60148201915081905092915050565b60006103fb828461035d565b60148201915081905092915050565b600061041682846103bd565b60208201915081905092915050565b6000602082019050818103600083015261043e8161038b565b9050919050565b600060208201905061045a60008301846103ae565b92915050565b600082825260208201905092915050565b600061047c826105ca565b9150610487836105ca565b9250827fffffffffffffffffffffffffffffffffffffffffffffffffffffffffffffffff038211156104bc576104bb610614565b5b828201905092915050565b60006104d2826105ca565b91506104dd836105ca565b9250826104ed576104ec610643565b5b828204905092915050565b6000610503826105ca565b915061050e836105ca565b9250817fffffffffffffffffffffffffffffffffffffffffffffffffffffffffffffffff048311821515161561054757610546610614565b5b828202905092915050565b600061055d826105ca565b9150610568836105ca565b92508282101561057b5761057a610614565b5b828203905092915050565b6000610591826105aa565b9050919050565b60006105a3826105aa565b9050919050565b600073ffffffffffffffffffffffffffffffffffffffff82169050919050565b6000819050919050565b60006105df826105f8565b9050919050565b60006105f1826105f8565b9050919050565b600061060382610677565b9050919050565b6000819050919050565b7f4e487b7100000000000000000000000000000000000000000000000000000000600052601160045260246000fd5b7f4e487b7100000000000000000000000000000000000000000000000000000000600052601260045260246000fd5b600080fd5b60008160601b9050919050565b7f7061796d656e742076616c75652068617320746f20332e352065746865720000600082015250565b6106b6816105ca565b81146106c157600080fd5b5056fea2646970667358221220286a03582fe9bfa2527a1023ceca4b60fcab50c3a4ab7204ff5791eaf6fbb30764736f6c63430008070033",
					"opcodes": "PUSH1 0x80 PUSH1 0x40 MSTORE CALLVALUE DUP1 ISZERO PUSH2 0x10 JUMPI PUSH1 0x0 DUP1 REVERT JUMPDEST POP PUSH2 0x6FA DUP1 PUSH2 0x20 PUSH1 0x0 CODECOPY PUSH1 0x0 RETURN INVALID PUSH1 0x80 PUSH1 0x40 MSTORE PUSH1 0x4 CALLDATASIZE LT PUSH2 0x70 JUMPI PUSH1 0x0 CALLDATALOAD PUSH1 0xE0 SHR DUP1 PUSH4 0x569F1BFC GT PUSH2 0x4E JUMPI DUP1 PUSH4 0x569F1BFC EQ PUSH2 0xD5 JUMPI DUP1 PUSH4 0x6057361D EQ PUSH2 0xDF JUMPI DUP1 PUSH4 0xA7FD2D6B EQ PUSH2 0x108 JUMPI DUP1 PUSH4 0xAC446002 EQ PUSH2 0x133 JUMPI PUSH2 0x70 JUMP JUMPDEST DUP1 PUSH4 0x12065FE0 EQ PUSH2 0x75 JUMPI DUP1 PUSH4 0x2E64CEC1 EQ PUSH2 0xA0 JUMPI DUP1 PUSH4 0x543DF080 EQ PUSH2 0xCB JUMPI JUMPDEST PUSH1 0x0 DUP1 REVERT JUMPDEST CALLVALUE DUP1 ISZERO PUSH2 0x81 JUMPI PUSH1 0x0 DUP1 REVERT JUMPDEST POP PUSH2 0x8A PUSH2 0x14A JUMP JUMPDEST PUSH1 0x40 MLOAD PUSH2 0x97 SWAP2 SWAP1 PUSH2 0x445 JUMP JUMPDEST PUSH1 0x40 MLOAD DUP1 SWAP2 SUB SWAP1 RETURN JUMPDEST CALLVALUE DUP1 ISZERO PUSH2 0xAC JUMPI PUSH1 0x0 DUP1 REVERT JUMPDEST POP PUSH2 0xB5 PUSH2 0x152 JUMP JUMPDEST PUSH1 0x40 MLOAD PUSH2 0xC2 SWAP2 SWAP1 PUSH2 0x445 JUMP JUMPDEST PUSH1 0x40 MLOAD DUP1 SWAP2 SUB SWAP1 RETURN JUMPDEST PUSH2 0xD3 PUSH2 0x15B JUMP JUMPDEST STOP JUMPDEST PUSH2 0xDD PUSH2 0x176 JUMP JUMPDEST STOP JUMPDEST CALLVALUE DUP1 ISZERO PUSH2 0xEB JUMPI PUSH1 0x0 DUP1 REVERT JUMPDEST POP PUSH2 0x106 PUSH1 0x4 DUP1 CALLDATASIZE SUB DUP2 ADD SWAP1 PUSH2 0x101 SWAP2 SWAP1 PUSH2 0x330 JUMP JUMPDEST PUSH2 0x1C3 JUMP JUMPDEST STOP JUMPDEST CALLVALUE DUP1 ISZERO PUSH2 0x114 JUMPI PUSH1 0x0 DUP1 REVERT JUMPDEST POP PUSH2 0x11D PUSH2 0x1CD JUMP JUMPDEST PUSH1 0x40 MLOAD PUSH2 0x12A SWAP2 SWAP1 PUSH2 0x445 JUMP JUMPDEST PUSH1 0x40 MLOAD DUP1 SWAP2 SUB SWAP1 RETURN JUMPDEST CALLVALUE DUP1 ISZERO PUSH2 0x13F JUMPI PUSH1 0x0 DUP1 REVERT JUMPDEST POP PUSH2 0x148 PUSH2 0x2C5 JUMP JUMPDEST STOP JUMPDEST PUSH1 0x0 SELFBALANCE SWAP1 POP SWAP1 JUMP JUMPDEST PUSH1 0x0 DUP1 SLOAD SWAP1 POP SWAP1 JUMP JUMPDEST CALLVALUE PUSH1 0x1 PUSH1 0x0 DUP3 DUP3 SLOAD PUSH2 0x16D SWAP2 SWAP1 PUSH2 0x471 JUMP JUMPDEST SWAP3 POP POP DUP2 SWAP1 SSTORE POP JUMP JUMPDEST PUSH8 0x30927F74C9DE0000 CALLVALUE EQ ISZERO PUSH2 0x1C1 JUMPI PUSH1 0x40 MLOAD PUSH32 0x8C379A000000000000000000000000000000000000000000000000000000000 DUP2 MSTORE PUSH1 0x4 ADD PUSH2 0x1B8 SWAP1 PUSH2 0x425 JUMP JUMPDEST PUSH1 0x40 MLOAD DUP1 SWAP2 SUB SWAP1 REVERT JUMPDEST JUMP JUMPDEST DUP1 PUSH1 0x0 DUP2 SWAP1 SSTORE POP POP JUMP JUMPDEST PUSH1 0x0 DUP1 NUMBER TIMESTAMP CALLER PUSH1 0x40 MLOAD PUSH1 0x20 ADD PUSH2 0x1E3 SWAP2 SWAP1 PUSH2 0x3D4 JUMP JUMPDEST PUSH1 0x40 MLOAD PUSH1 0x20 DUP2 DUP4 SUB SUB DUP2 MSTORE SWAP1 PUSH1 0x40 MSTORE DUP1 MLOAD SWAP1 PUSH1 0x20 ADD KECCAK256 PUSH1 0x0 SHR PUSH2 0x206 SWAP2 SWAP1 PUSH2 0x4C7 JUMP JUMPDEST GASLIMIT TIMESTAMP COINBASE PUSH1 0x40 MLOAD PUSH1 0x20 ADD PUSH2 0x219 SWAP2 SWAP1 PUSH2 0x3EF JUMP JUMPDEST PUSH1 0x40 MLOAD PUSH1 0x20 DUP2 DUP4 SUB SUB DUP2 MSTORE SWAP1 PUSH1 0x40 MSTORE DUP1 MLOAD SWAP1 PUSH1 0x20 ADD KECCAK256 PUSH1 0x0 SHR PUSH2 0x23C SWAP2 SWAP1 PUSH2 0x4C7 JUMP JUMPDEST DIFFICULTY TIMESTAMP PUSH2 0x248 SWAP2 SWAP1 PUSH2 0x471 JUMP JUMPDEST PUSH2 0x252 SWAP2 SWAP1 PUSH2 0x471 JUMP JUMPDEST PUSH2 0x25C SWAP2 SWAP1 PUSH2 0x471 JUMP JUMPDEST PUSH2 0x266 SWAP2 SWAP1 PUSH2 0x471 JUMP JUMPDEST PUSH2 0x270 SWAP2 SWAP1 PUSH2 0x471 JUMP JUMPDEST PUSH1 0x40 MLOAD PUSH1 0x20 ADD PUSH2 0x280 SWAP2 SWAP1 PUSH2 0x40A JUMP JUMPDEST PUSH1 0x40 MLOAD PUSH1 0x20 DUP2 DUP4 SUB SUB DUP2 MSTORE SWAP1 PUSH1 0x40 MSTORE DUP1 MLOAD SWAP1 PUSH1 0x20 ADD KECCAK256 PUSH1 0x0 SHR SWAP1 POP PUSH2 0x3E8 DUP1 DUP3 PUSH2 0x2AA SWAP2 SWAP1 PUSH2 0x4C7 JUMP JUMPDEST PUSH2 0x2B4 SWAP2 SWAP1 PUSH2 0x4F8 JUMP JUMPDEST DUP2 PUSH2 0x2BF SWAP2 SWAP1 PUSH2 0x552 JUMP JUMPDEST SWAP2 POP POP SWAP1 JUMP JUMPDEST PUSH1 0x0 CALLER SWAP1 POP DUP1 PUSH20 0xFFFFFFFFFFFFFFFFFFFFFFFFFFFFFFFFFFFFFFFF AND PUSH2 0x8FC PUSH2 0x2EC PUSH2 0x14A JUMP JUMPDEST SWAP1 DUP2 ISZERO MUL SWAP1 PUSH1 0x40 MLOAD PUSH1 0x0 PUSH1 0x40 MLOAD DUP1 DUP4 SUB DUP2 DUP6 DUP9 DUP9 CALL SWAP4 POP POP POP POP ISZERO DUP1 ISZERO PUSH2 0x317 JUMPI RETURNDATASIZE PUSH1 0x0 DUP1 RETURNDATACOPY RETURNDATASIZE PUSH1 0x0 REVERT JUMPDEST POP POP JUMP JUMPDEST PUSH1 0x0 DUP2 CALLDATALOAD SWAP1 POP PUSH2 0x32A DUP2 PUSH2 0x6AD JUMP JUMPDEST SWAP3 SWAP2 POP POP JUMP JUMPDEST PUSH1 0x0 PUSH1 0x20 DUP3 DUP5 SUB SLT ISZERO PUSH2 0x346 JUMPI PUSH2 0x345 PUSH2 0x672 JUMP JUMPDEST JUMPDEST PUSH1 0x0 PUSH2 0x354 DUP5 DUP3 DUP6 ADD PUSH2 0x31B JUMP JUMPDEST SWAP2 POP POP SWAP3 SWAP2 POP POP JUMP JUMPDEST PUSH2 0x36E PUSH2 0x369 DUP3 PUSH2 0x598 JUMP JUMPDEST PUSH2 0x5E6 JUMP JUMPDEST DUP3 MSTORE POP POP JUMP JUMPDEST PUSH2 0x385 PUSH2 0x380 DUP3 PUSH2 0x586 JUMP JUMPDEST PUSH2 0x5D4 JUMP JUMPDEST DUP3 MSTORE POP POP JUMP JUMPDEST PUSH1 0x0 PUSH2 0x398 PUSH1 0x1E DUP4 PUSH2 0x460 JUMP JUMPDEST SWAP2 POP PUSH2 0x3A3 DUP3 PUSH2 0x684 JUMP JUMPDEST PUSH1 0x20 DUP3 ADD SWAP1 POP SWAP2 SWAP1 POP JUMP JUMPDEST PUSH2 0x3B7 DUP2 PUSH2 0x5CA JUMP JUMPDEST DUP3 MSTORE POP POP JUMP JUMPDEST PUSH2 0x3CE PUSH2 0x3C9 DUP3 PUSH2 0x5CA JUMP JUMPDEST PUSH2 0x60A JUMP JUMPDEST DUP3 MSTORE POP POP JUMP JUMPDEST PUSH1 0x0 PUSH2 0x3E0 DUP3 DUP5 PUSH2 0x374 JUMP JUMPDEST PUSH1 0x14 DUP3 ADD SWAP2 POP DUP2 SWAP1 POP SWAP3 SWAP2 POP POP JUMP JUMPDEST PUSH1 0x0 PUSH2 0x3FB DUP3 DUP5 PUSH2 0x35D JUMP JUMPDEST PUSH1 0x14 DUP3 ADD SWAP2 POP DUP2 SWAP1 POP SWAP3 SWAP2 POP POP JUMP JUMPDEST PUSH1 0x0 PUSH2 0x416 DUP3 DUP5 PUSH2 0x3BD JUMP JUMPDEST PUSH1 0x20 DUP3 ADD SWAP2 POP DUP2 SWAP1 POP SWAP3 SWAP2 POP POP JUMP JUMPDEST PUSH1 0x0 PUSH1 0x20 DUP3 ADD SWAP1 POP DUP2 DUP2 SUB PUSH1 0x0 DUP4 ADD MSTORE PUSH2 0x43E DUP2 PUSH2 0x38B JUMP JUMPDEST SWAP1 POP SWAP2 SWAP1 POP JUMP JUMPDEST PUSH1 0x0 PUSH1 0x20 DUP3 ADD SWAP1 POP PUSH2 0x45A PUSH1 0x0 DUP4 ADD DUP5 PUSH2 0x3AE JUMP JUMPDEST SWAP3 SWAP2 POP POP JUMP JUMPDEST PUSH1 0x0 DUP3 DUP3 MSTORE PUSH1 0x20 DUP3 ADD SWAP1 POP SWAP3 SWAP2 POP POP JUMP JUMPDEST PUSH1 0x0 PUSH2 0x47C DUP3 PUSH2 0x5CA JUMP JUMPDEST SWAP2 POP PUSH2 0x487 DUP4 PUSH2 0x5CA JUMP JUMPDEST SWAP3 POP DUP3 PUSH32 0xFFFFFFFFFFFFFFFFFFFFFFFFFFFFFFFFFFFFFFFFFFFFFFFFFFFFFFFFFFFFFFFF SUB DUP3 GT ISZERO PUSH2 0x4BC JUMPI PUSH2 0x4BB PUSH2 0x614 JUMP JUMPDEST JUMPDEST DUP3 DUP3 ADD SWAP1 POP SWAP3 SWAP2 POP POP JUMP JUMPDEST PUSH1 0x0 PUSH2 0x4D2 DUP3 PUSH2 0x5CA JUMP JUMPDEST SWAP2 POP PUSH2 0x4DD DUP4 PUSH2 0x5CA JUMP JUMPDEST SWAP3 POP DUP3 PUSH2 0x4ED JUMPI PUSH2 0x4EC PUSH2 0x643 JUMP JUMPDEST JUMPDEST DUP3 DUP3 DIV SWAP1 POP SWAP3 SWAP2 POP POP JUMP JUMPDEST PUSH1 0x0 PUSH2 0x503 DUP3 PUSH2 0x5CA JUMP JUMPDEST SWAP2 POP PUSH2 0x50E DUP4 PUSH2 0x5CA JUMP JUMPDEST SWAP3 POP DUP2 PUSH32 0xFFFFFFFFFFFFFFFFFFFFFFFFFFFFFFFFFFFFFFFFFFFFFFFFFFFFFFFFFFFFFFFF DIV DUP4 GT DUP3 ISZERO ISZERO AND ISZERO PUSH2 0x547 JUMPI PUSH2 0x546 PUSH2 0x614 JUMP JUMPDEST JUMPDEST DUP3 DUP3 MUL SWAP1 POP SWAP3 SWAP2 POP POP JUMP JUMPDEST PUSH1 0x0 PUSH2 0x55D DUP3 PUSH2 0x5CA JUMP JUMPDEST SWAP2 POP PUSH2 0x568 DUP4 PUSH2 0x5CA JUMP JUMPDEST SWAP3 POP DUP3 DUP3 LT ISZERO PUSH2 0x57B JUMPI PUSH2 0x57A PUSH2 0x614 JUMP JUMPDEST JUMPDEST DUP3 DUP3 SUB SWAP1 POP SWAP3 SWAP2 POP POP JUMP JUMPDEST PUSH1 0x0 PUSH2 0x591 DUP3 PUSH2 0x5AA JUMP JUMPDEST SWAP1 POP SWAP2 SWAP1 POP JUMP JUMPDEST PUSH1 0x0 PUSH2 0x5A3 DUP3 PUSH2 0x5AA JUMP JUMPDEST SWAP1 POP SWAP2 SWAP1 POP JUMP JUMPDEST PUSH1 0x0 PUSH20 0xFFFFFFFFFFFFFFFFFFFFFFFFFFFFFFFFFFFFFFFF DUP3 AND SWAP1 POP SWAP2 SWAP1 POP JUMP JUMPDEST PUSH1 0x0 DUP2 SWAP1 POP SWAP2 SWAP1 POP JUMP JUMPDEST PUSH1 0x0 PUSH2 0x5DF DUP3 PUSH2 0x5F8 JUMP JUMPDEST SWAP1 POP SWAP2 SWAP1 POP JUMP JUMPDEST PUSH1 0x0 PUSH2 0x5F1 DUP3 PUSH2 0x5F8 JUMP JUMPDEST SWAP1 POP SWAP2 SWAP1 POP JUMP JUMPDEST PUSH1 0x0 PUSH2 0x603 DUP3 PUSH2 0x677 JUMP JUMPDEST SWAP1 POP SWAP2 SWAP1 POP JUMP JUMPDEST PUSH1 0x0 DUP2 SWAP1 POP SWAP2 SWAP1 POP JUMP JUMPDEST PUSH32 0x4E487B7100000000000000000000000000000000000000000000000000000000 PUSH1 0x0 MSTORE PUSH1 0x11 PUSH1 0x4 MSTORE PUSH1 0x24 PUSH1 0x0 REVERT JUMPDEST PUSH32 0x4E487B7100000000000000000000000000000000000000000000000000000000 PUSH1 0x0 MSTORE PUSH1 0x12 PUSH1 0x4 MSTORE PUSH1 0x24 PUSH1 0x0 REVERT JUMPDEST PUSH1 0x0 DUP1 REVERT JUMPDEST PUSH1 0x0 DUP2 PUSH1 0x60 SHL SWAP1 POP SWAP2 SWAP1 POP JUMP JUMPDEST PUSH32 0x7061796D656E742076616C75652068617320746F20332E352065746865720000 PUSH1 0x0 DUP3 ADD MSTORE POP JUMP JUMPDEST PUSH2 0x6B6 DUP2 PUSH2 0x5CA JUMP JUMPDEST DUP2 EQ PUSH2 0x6C1 JUMPI PUSH1 0x0 DUP1 REVERT JUMPDEST POP JUMP INVALID LOG2 PUSH5 0x6970667358 0x22 SLT KECCAK256 0x28 PUSH11 0x3582FE9BFA2527A1023CE 0xCA 0x4B PUSH1 0xFC 0xAB POP 0xC3 LOG4 0xAB PUSH19 0x4FF5791EAF6FBB30764736F6C634300080700 CALLER "
				},
				"gasEstimates": {
					"creation": {
						"codeDepositCost": "357200",
						"executionCost": "393",
						"totalCost": "357593"
					},
					"external": {
						"dice()": "434",
						"getBalance()": "340",
						"randomDice()": "infinite",
						"refil()": "infinite",
						"retrieve()": "2460",
						"store(uint256)": "22542",
						"withdrawMoney()": "infinite"
					}
				},
				"methodIdentifiers": {
					"dice()": "569f1bfc",
					"getBalance()": "12065fe0",
					"randomDice()": "a7fd2d6b",
					"refil()": "543df080",
					"retrieve()": "2e64cec1",
					"store(uint256)": "6057361d",
					"withdrawMoney()": "ac446002"
				}
			},
			"storageLayout": {
				"storage": [
					{
						"astId": 4,
						"contract": "dice.sol:Dice",
						"label": "number",
						"offset": 0,
						"slot": "0",
						"type": "t_uint256"
					},
					{
						"astId": 6,
						"contract": "dice.sol:Dice",
						"label": "balance",
						"offset": 0,
						"slot": "1",
						"type": "t_uint256"
					}
				],
				"types": {
					"t_uint256": {
						"encoding": "inplace",
						"label": "uint256",
						"numberOfBytes": "32"
					}
				}
			},
			"userdoc": {
				"kind": "user",
				"methods": {},
				"version": 1
			}
		}
	}
}