{
	"dice.sol": {
		"Dice": {
			"abi": [
				{
					"inputs": [
						{
							"internalType": "uint8",
							"name": "num",
							"type": "uint8"
						}
					],
					"name": "dice",
					"outputs": [],
					"stateMutability": "payable",
					"type": "function"
				},
				{
					"inputs": [],
					"name": "getBalance",
					"outputs": [
						{
							"internalType": "uint256",
							"name": "",
							"type": "uint256"
						}
					],
					"stateMutability": "view",
					"type": "function"
				},
				{
					"inputs": [],
					"name": "refil",
					"outputs": [],
					"stateMutability": "payable",
					"type": "function"
				},
				{
					"inputs": [],
					"name": "retrieve",
					"outputs": [
						{
							"internalType": "uint256",
							"name": "",
							"type": "uint256"
						}
					],
					"stateMutability": "view",
					"type": "function"
				},
				{
					"inputs": [
						{
							"internalType": "uint256",
							"name": "num",
							"type": "uint256"
						}
					],
					"name": "store",
					"outputs": [],
					"stateMutability": "nonpayable",
					"type": "function"
				},
				{
					"inputs": [],
					"name": "withdrawMoney",
					"outputs": [],
					"stateMutability": "nonpayable",
					"type": "function"
				}
			],
			"devdoc": {
				"kind": "dev",
				"methods": {},
				"version": 1
			},
			"evm": {
				"assembly": "    /* \"dice.sol\":75:1334  contract Dice {... */\n  mstore(0x40, 0x80)\n  callvalue\n  dup1\n  iszero\n  tag_1\n  jumpi\n  0x00\n  dup1\n  revert\ntag_1:\n  pop\n  dataSize(sub_0)\n  dup1\n  dataOffset(sub_0)\n  0x00\n  codecopy\n  0x00\n  return\nstop\n\nsub_0: assembly {\n        /* \"dice.sol\":75:1334  contract Dice {... */\n      mstore(0x40, 0x80)\n      jumpi(tag_1, lt(calldatasize, 0x04))\n      shr(0xe0, calldataload(0x00))\n      dup1\n      0x12065fe0\n      eq\n      tag_2\n      jumpi\n      dup1\n      0x2e64cec1\n      eq\n      tag_3\n      jumpi\n      dup1\n      0x543df080\n      eq\n      tag_4\n      jumpi\n      dup1\n      0x6057361d\n      eq\n      tag_5\n      jumpi\n      dup1\n      0xa04c797f\n      eq\n      tag_6\n      jumpi\n      dup1\n      0xac446002\n      eq\n      tag_7\n      jumpi\n    tag_1:\n      0x00\n      dup1\n      revert\n        /* \"dice.sol\":364:457  function getBalance() public view returns(uint) {... */\n    tag_2:\n      callvalue\n      dup1\n      iszero\n      tag_8\n      jumpi\n      0x00\n      dup1\n      revert\n    tag_8:\n      pop\n      tag_9\n      tag_10\n      jump\t// in\n    tag_9:\n      mload(0x40)\n      tag_11\n      swap2\n      swap1\n      tag_12\n      jump\t// in\n    tag_11:\n      mload(0x40)\n      dup1\n      swap2\n      sub\n      swap1\n      return\n        /* \"dice.sol\":205:284  function retrieve() public view returns (uint256){... */\n    tag_3:\n      callvalue\n      dup1\n      iszero\n      tag_13\n      jumpi\n      0x00\n      dup1\n      revert\n    tag_13:\n      pop\n      tag_14\n      tag_15\n      jump\t// in\n    tag_14:\n      mload(0x40)\n      tag_16\n      swap2\n      swap1\n      tag_12\n      jump\t// in\n    tag_16:\n      mload(0x40)\n      dup1\n      swap2\n      sub\n      swap1\n      return\n        /* \"dice.sol\":290:359  function refil() public payable {... */\n    tag_4:\n      tag_17\n      tag_18\n      jump\t// in\n    tag_17:\n      stop\n        /* \"dice.sol\":135:199  function store(uint256 num) public {... */\n    tag_5:\n      callvalue\n      dup1\n      iszero\n      tag_19\n      jumpi\n      0x00\n      dup1\n      revert\n    tag_19:\n      pop\n      tag_20\n      0x04\n      dup1\n      calldatasize\n      sub\n      dup2\n      add\n      swap1\n      tag_21\n      swap2\n      swap1\n      tag_22\n      jump\t// in\n    tag_21:\n      tag_23\n      jump\t// in\n    tag_20:\n      stop\n        /* \"dice.sol\":591:795  function dice(uint8 num) public payable {... */\n    tag_6:\n      tag_24\n      0x04\n      dup1\n      calldatasize\n      sub\n      dup2\n      add\n      swap1\n      tag_25\n      swap2\n      swap1\n      tag_26\n      jump\t// in\n    tag_25:\n      tag_27\n      jump\t// in\n    tag_24:\n      stop\n        /* \"dice.sol\":462:586  function withdrawMoney() public {... */\n    tag_7:\n      callvalue\n      dup1\n      iszero\n      tag_28\n      jumpi\n      0x00\n      dup1\n      revert\n    tag_28:\n      pop\n      tag_29\n      tag_30\n      jump\t// in\n    tag_29:\n      stop\n        /* \"dice.sol\":364:457  function getBalance() public view returns(uint) {... */\n    tag_10:\n        /* \"dice.sol\":406:410  uint */\n      0x00\n        /* \"dice.sol\":429:450  address(this).balance */\n      selfbalance\n        /* \"dice.sol\":422:450  return address(this).balance */\n      swap1\n      pop\n        /* \"dice.sol\":364:457  function getBalance() public view returns(uint) {... */\n      swap1\n      jump\t// out\n        /* \"dice.sol\":205:284  function retrieve() public view returns (uint256){... */\n    tag_15:\n        /* \"dice.sol\":246:253  uint256 */\n      0x00\n        /* \"dice.sol\":271:277  number */\n      dup1\n      sload\n        /* \"dice.sol\":264:277  return number */\n      swap1\n      pop\n        /* \"dice.sol\":205:284  function retrieve() public view returns (uint256){... */\n      swap1\n      jump\t// out\n        /* \"dice.sol\":290:359  function refil() public payable {... */\n    tag_18:\n        /* \"dice.sol\":343:352  msg.value */\n      callvalue\n        /* \"dice.sol\":332:339  balance */\n      0x01\n      0x00\n        /* \"dice.sol\":332:352  balance += msg.value */\n      dup3\n      dup3\n      sload\n      tag_34\n      swap2\n      swap1\n      tag_35\n      jump\t// in\n    tag_34:\n      swap3\n      pop\n      pop\n      dup2\n      swap1\n      sstore\n      pop\n        /* \"dice.sol\":290:359  function refil() public payable {... */\n      jump\t// out\n        /* \"dice.sol\":135:199  function store(uint256 num) public {... */\n    tag_23:\n        /* \"dice.sol\":189:192  num */\n      dup1\n        /* \"dice.sol\":180:186  number */\n      0x00\n        /* \"dice.sol\":180:192  number = num */\n      dup2\n      swap1\n      sstore\n      pop\n        /* \"dice.sol\":135:199  function store(uint256 num) public {... */\n      pop\n      jump\t// out\n        /* \"dice.sol\":591:795  function dice(uint8 num) public payable {... */\n    tag_27:\n        /* \"dice.sol\":662:669  3 ether */\n      0x29a2241af62c0000\n        /* \"dice.sol\":649:658  msg.value */\n      callvalue\n        /* \"dice.sol\":649:669  msg.value == 3 ether */\n      eq\n        /* \"dice.sol\":641:702  require(msg.value == 3 ether, \"payment value has to 3 ether\") */\n      tag_38\n      jumpi\n      mload(0x40)\n      0x08c379a000000000000000000000000000000000000000000000000000000000\n      dup2\n      mstore\n      0x04\n      add\n      tag_39\n      swap1\n      tag_40\n      jump\t// in\n    tag_39:\n      mload(0x40)\n      dup1\n      swap2\n      sub\n      swap1\n      revert\n    tag_38:\n        /* \"dice.sol\":712:730  address payable to */\n      0x00\n        /* \"dice.sol\":741:751  msg.sender */\n      caller\n        /* \"dice.sol\":712:752  address payable to = payable(msg.sender) */\n      swap1\n      pop\n        /* \"dice.sol\":762:764  to */\n      dup1\n        /* \"dice.sol\":762:773  to.transfer */\n      0xffffffffffffffffffffffffffffffffffffffff\n      and\n        /* \"dice.sol\":762:788  to.transfer(num * 1 ether) */\n      0x08fc\n        /* \"dice.sol\":780:787  1 ether */\n      0x0de0b6b3a7640000\n        /* \"dice.sol\":774:777  num */\n      dup5\n        /* \"dice.sol\":774:787  num * 1 ether */\n      0xff\n      and\n      tag_41\n      swap2\n      swap1\n      tag_42\n      jump\t// in\n    tag_41:\n        /* \"dice.sol\":762:788  to.transfer(num * 1 ether) */\n      0xffffffffffffffff\n      and\n      swap1\n      dup2\n      iszero\n      mul\n      swap1\n      mload(0x40)\n      0x00\n      mload(0x40)\n      dup1\n      dup4\n      sub\n      dup2\n      dup6\n      dup9\n      dup9\n      call\n      swap4\n      pop\n      pop\n      pop\n      pop\n      iszero\n      dup1\n      iszero\n      tag_44\n      jumpi\n      returndatasize\n      0x00\n      dup1\n      returndatacopy\n      revert(0x00, returndatasize)\n    tag_44:\n      pop\n        /* \"dice.sol\":631:795  {... */\n      pop\n        /* \"dice.sol\":591:795  function dice(uint8 num) public payable {... */\n      pop\n      jump\t// out\n        /* \"dice.sol\":462:586  function withdrawMoney() public {... */\n    tag_30:\n        /* \"dice.sol\":504:522  address payable to */\n      0x00\n        /* \"dice.sol\":533:543  msg.sender */\n      caller\n        /* \"dice.sol\":504:544  address payable to = payable(msg.sender) */\n      swap1\n      pop\n        /* \"dice.sol\":554:556  to */\n      dup1\n        /* \"dice.sol\":554:565  to.transfer */\n      0xffffffffffffffffffffffffffffffffffffffff\n      and\n        /* \"dice.sol\":554:579  to.transfer(getBalance()) */\n      0x08fc\n        /* \"dice.sol\":566:578  getBalance() */\n      tag_46\n        /* \"dice.sol\":566:576  getBalance */\n      tag_10\n        /* \"dice.sol\":566:578  getBalance() */\n      jump\t// in\n    tag_46:\n        /* \"dice.sol\":554:579  to.transfer(getBalance()) */\n      swap1\n      dup2\n      iszero\n      mul\n      swap1\n      mload(0x40)\n      0x00\n      mload(0x40)\n      dup1\n      dup4\n      sub\n      dup2\n      dup6\n      dup9\n      dup9\n      call\n      swap4\n      pop\n      pop\n      pop\n      pop\n      iszero\n      dup1\n      iszero\n      tag_48\n      jumpi\n      returndatasize\n      0x00\n      dup1\n      returndatacopy\n      revert(0x00, returndatasize)\n    tag_48:\n      pop\n        /* \"dice.sol\":494:586  {... */\n      pop\n        /* \"dice.sol\":462:586  function withdrawMoney() public {... */\n      jump\t// out\n        /* \"#utility.yul\":7:146   */\n    tag_50:\n        /* \"#utility.yul\":53:58   */\n      0x00\n        /* \"#utility.yul\":91:97   */\n      dup2\n        /* \"#utility.yul\":78:98   */\n      calldataload\n        /* \"#utility.yul\":69:98   */\n      swap1\n      pop\n        /* \"#utility.yul\":107:140   */\n      tag_52\n        /* \"#utility.yul\":134:139   */\n      dup2\n        /* \"#utility.yul\":107:140   */\n      tag_53\n      jump\t// in\n    tag_52:\n        /* \"#utility.yul\":7:146   */\n      swap3\n      swap2\n      pop\n      pop\n      jump\t// out\n        /* \"#utility.yul\":152:287   */\n    tag_54:\n        /* \"#utility.yul\":196:201   */\n      0x00\n        /* \"#utility.yul\":234:240   */\n      dup2\n        /* \"#utility.yul\":221:241   */\n      calldataload\n        /* \"#utility.yul\":212:241   */\n      swap1\n      pop\n        /* \"#utility.yul\":250:281   */\n      tag_56\n        /* \"#utility.yul\":275:280   */\n      dup2\n        /* \"#utility.yul\":250:281   */\n      tag_57\n      jump\t// in\n    tag_56:\n        /* \"#utility.yul\":152:287   */\n      swap3\n      swap2\n      pop\n      pop\n      jump\t// out\n        /* \"#utility.yul\":293:622   */\n    tag_22:\n        /* \"#utility.yul\":352:358   */\n      0x00\n        /* \"#utility.yul\":401:403   */\n      0x20\n        /* \"#utility.yul\":389:398   */\n      dup3\n        /* \"#utility.yul\":380:387   */\n      dup5\n        /* \"#utility.yul\":376:399   */\n      sub\n        /* \"#utility.yul\":372:404   */\n      slt\n        /* \"#utility.yul\":369:488   */\n      iszero\n      tag_59\n      jumpi\n        /* \"#utility.yul\":407:486   */\n      tag_60\n      tag_61\n      jump\t// in\n    tag_60:\n        /* \"#utility.yul\":369:488   */\n    tag_59:\n        /* \"#utility.yul\":527:528   */\n      0x00\n        /* \"#utility.yul\":552:605   */\n      tag_62\n        /* \"#utility.yul\":597:604   */\n      dup5\n        /* \"#utility.yul\":588:594   */\n      dup3\n        /* \"#utility.yul\":577:586   */\n      dup6\n        /* \"#utility.yul\":573:595   */\n      add\n        /* \"#utility.yul\":552:605   */\n      tag_50\n      jump\t// in\n    tag_62:\n        /* \"#utility.yul\":542:605   */\n      swap2\n      pop\n        /* \"#utility.yul\":498:615   */\n      pop\n        /* \"#utility.yul\":293:622   */\n      swap3\n      swap2\n      pop\n      pop\n      jump\t// out\n        /* \"#utility.yul\":628:953   */\n    tag_26:\n        /* \"#utility.yul\":685:691   */\n      0x00\n        /* \"#utility.yul\":734:736   */\n      0x20\n        /* \"#utility.yul\":722:731   */\n      dup3\n        /* \"#utility.yul\":713:720   */\n      dup5\n        /* \"#utility.yul\":709:732   */\n      sub\n        /* \"#utility.yul\":705:737   */\n      slt\n        /* \"#utility.yul\":702:821   */\n      iszero\n      tag_64\n      jumpi\n        /* \"#utility.yul\":740:819   */\n      tag_65\n      tag_61\n      jump\t// in\n    tag_65:\n        /* \"#utility.yul\":702:821   */\n    tag_64:\n        /* \"#utility.yul\":860:861   */\n      0x00\n        /* \"#utility.yul\":885:936   */\n      tag_66\n        /* \"#utility.yul\":928:935   */\n      dup5\n        /* \"#utility.yul\":919:925   */\n      dup3\n        /* \"#utility.yul\":908:917   */\n      dup6\n        /* \"#utility.yul\":904:926   */\n      add\n        /* \"#utility.yul\":885:936   */\n      tag_54\n      jump\t// in\n    tag_66:\n        /* \"#utility.yul\":875:936   */\n      swap2\n      pop\n        /* \"#utility.yul\":831:946   */\n      pop\n        /* \"#utility.yul\":628:953   */\n      swap3\n      swap2\n      pop\n      pop\n      jump\t// out\n        /* \"#utility.yul\":959:1325   */\n    tag_67:\n        /* \"#utility.yul\":1101:1104   */\n      0x00\n        /* \"#utility.yul\":1122:1189   */\n      tag_69\n        /* \"#utility.yul\":1186:1188   */\n      0x1c\n        /* \"#utility.yul\":1181:1184   */\n      dup4\n        /* \"#utility.yul\":1122:1189   */\n      tag_70\n      jump\t// in\n    tag_69:\n        /* \"#utility.yul\":1115:1189   */\n      swap2\n      pop\n        /* \"#utility.yul\":1198:1291   */\n      tag_71\n        /* \"#utility.yul\":1287:1290   */\n      dup3\n        /* \"#utility.yul\":1198:1291   */\n      tag_72\n      jump\t// in\n    tag_71:\n        /* \"#utility.yul\":1316:1318   */\n      0x20\n        /* \"#utility.yul\":1311:1314   */\n      dup3\n        /* \"#utility.yul\":1307:1319   */\n      add\n        /* \"#utility.yul\":1300:1319   */\n      swap1\n      pop\n        /* \"#utility.yul\":959:1325   */\n      swap2\n      swap1\n      pop\n      jump\t// out\n        /* \"#utility.yul\":1331:1449   */\n    tag_73:\n        /* \"#utility.yul\":1418:1442   */\n      tag_75\n        /* \"#utility.yul\":1436:1441   */\n      dup2\n        /* \"#utility.yul\":1418:1442   */\n      tag_76\n      jump\t// in\n    tag_75:\n        /* \"#utility.yul\":1413:1416   */\n      dup3\n        /* \"#utility.yul\":1406:1443   */\n      mstore\n        /* \"#utility.yul\":1331:1449   */\n      pop\n      pop\n      jump\t// out\n        /* \"#utility.yul\":1455:1874   */\n    tag_40:\n        /* \"#utility.yul\":1621:1625   */\n      0x00\n        /* \"#utility.yul\":1659:1661   */\n      0x20\n        /* \"#utility.yul\":1648:1657   */\n      dup3\n        /* \"#utility.yul\":1644:1662   */\n      add\n        /* \"#utility.yul\":1636:1662   */\n      swap1\n      pop\n        /* \"#utility.yul\":1708:1717   */\n      dup2\n        /* \"#utility.yul\":1702:1706   */\n      dup2\n        /* \"#utility.yul\":1698:1718   */\n      sub\n        /* \"#utility.yul\":1694:1695   */\n      0x00\n        /* \"#utility.yul\":1683:1692   */\n      dup4\n        /* \"#utility.yul\":1679:1696   */\n      add\n        /* \"#utility.yul\":1672:1719   */\n      mstore\n        /* \"#utility.yul\":1736:1867   */\n      tag_78\n        /* \"#utility.yul\":1862:1866   */\n      dup2\n        /* \"#utility.yul\":1736:1867   */\n      tag_67\n      jump\t// in\n    tag_78:\n        /* \"#utility.yul\":1728:1867   */\n      swap1\n      pop\n        /* \"#utility.yul\":1455:1874   */\n      swap2\n      swap1\n      pop\n      jump\t// out\n        /* \"#utility.yul\":1880:2102   */\n    tag_12:\n        /* \"#utility.yul\":1973:1977   */\n      0x00\n        /* \"#utility.yul\":2011:2013   */\n      0x20\n        /* \"#utility.yul\":2000:2009   */\n      dup3\n        /* \"#utility.yul\":1996:2014   */\n      add\n        /* \"#utility.yul\":1988:2014   */\n      swap1\n      pop\n        /* \"#utility.yul\":2024:2095   */\n      tag_80\n        /* \"#utility.yul\":2092:2093   */\n      0x00\n        /* \"#utility.yul\":2081:2090   */\n      dup4\n        /* \"#utility.yul\":2077:2094   */\n      add\n        /* \"#utility.yul\":2068:2074   */\n      dup5\n        /* \"#utility.yul\":2024:2095   */\n      tag_73\n      jump\t// in\n    tag_80:\n        /* \"#utility.yul\":1880:2102   */\n      swap3\n      swap2\n      pop\n      pop\n      jump\t// out\n        /* \"#utility.yul\":2189:2358   */\n    tag_70:\n        /* \"#utility.yul\":2273:2284   */\n      0x00\n        /* \"#utility.yul\":2307:2313   */\n      dup3\n        /* \"#utility.yul\":2302:2305   */\n      dup3\n        /* \"#utility.yul\":2295:2314   */\n      mstore\n        /* \"#utility.yul\":2347:2351   */\n      0x20\n        /* \"#utility.yul\":2342:2345   */\n      dup3\n        /* \"#utility.yul\":2338:2352   */\n      add\n        /* \"#utility.yul\":2323:2352   */\n      swap1\n      pop\n        /* \"#utility.yul\":2189:2358   */\n      swap3\n      swap2\n      pop\n      pop\n      jump\t// out\n        /* \"#utility.yul\":2364:2669   */\n    tag_35:\n        /* \"#utility.yul\":2404:2407   */\n      0x00\n        /* \"#utility.yul\":2423:2443   */\n      tag_85\n        /* \"#utility.yul\":2441:2442   */\n      dup3\n        /* \"#utility.yul\":2423:2443   */\n      tag_76\n      jump\t// in\n    tag_85:\n        /* \"#utility.yul\":2418:2443   */\n      swap2\n      pop\n        /* \"#utility.yul\":2457:2477   */\n      tag_86\n        /* \"#utility.yul\":2475:2476   */\n      dup4\n        /* \"#utility.yul\":2457:2477   */\n      tag_76\n      jump\t// in\n    tag_86:\n        /* \"#utility.yul\":2452:2477   */\n      swap3\n      pop\n        /* \"#utility.yul\":2611:2612   */\n      dup3\n        /* \"#utility.yul\":2543:2609   */\n      0xffffffffffffffffffffffffffffffffffffffffffffffffffffffffffffffff\n        /* \"#utility.yul\":2539:2613   */\n      sub\n        /* \"#utility.yul\":2536:2537   */\n      dup3\n        /* \"#utility.yul\":2533:2614   */\n      gt\n        /* \"#utility.yul\":2530:2637   */\n      iszero\n      tag_87\n      jumpi\n        /* \"#utility.yul\":2617:2635   */\n      tag_88\n      tag_89\n      jump\t// in\n    tag_88:\n        /* \"#utility.yul\":2530:2637   */\n    tag_87:\n        /* \"#utility.yul\":2661:2662   */\n      dup3\n        /* \"#utility.yul\":2658:2659   */\n      dup3\n        /* \"#utility.yul\":2654:2663   */\n      add\n        /* \"#utility.yul\":2647:2663   */\n      swap1\n      pop\n        /* \"#utility.yul\":2364:2669   */\n      swap3\n      swap2\n      pop\n      pop\n      jump\t// out\n        /* \"#utility.yul\":2675:2972   */\n    tag_42:\n        /* \"#utility.yul\":2714:2721   */\n      0x00\n        /* \"#utility.yul\":2737:2756   */\n      tag_91\n        /* \"#utility.yul\":2754:2755   */\n      dup3\n        /* \"#utility.yul\":2737:2756   */\n      tag_92\n      jump\t// in\n    tag_91:\n        /* \"#utility.yul\":2732:2756   */\n      swap2\n      pop\n        /* \"#utility.yul\":2770:2789   */\n      tag_93\n        /* \"#utility.yul\":2787:2788   */\n      dup4\n        /* \"#utility.yul\":2770:2789   */\n      tag_92\n      jump\t// in\n    tag_93:\n        /* \"#utility.yul\":2765:2789   */\n      swap3\n      pop\n        /* \"#utility.yul\":2909:2910   */\n      dup2\n        /* \"#utility.yul\":2889:2907   */\n      0xffffffffffffffff\n        /* \"#utility.yul\":2885:2911   */\n      div\n        /* \"#utility.yul\":2882:2883   */\n      dup4\n        /* \"#utility.yul\":2879:2912   */\n      gt\n        /* \"#utility.yul\":2874:2875   */\n      dup3\n        /* \"#utility.yul\":2867:2876   */\n      iszero\n        /* \"#utility.yul\":2860:2877   */\n      iszero\n        /* \"#utility.yul\":2856:2913   */\n      and\n        /* \"#utility.yul\":2853:2936   */\n      iszero\n      tag_94\n      jumpi\n        /* \"#utility.yul\":2916:2934   */\n      tag_95\n      tag_89\n      jump\t// in\n    tag_95:\n        /* \"#utility.yul\":2853:2936   */\n    tag_94:\n        /* \"#utility.yul\":2964:2965   */\n      dup3\n        /* \"#utility.yul\":2961:2962   */\n      dup3\n        /* \"#utility.yul\":2957:2966   */\n      mul\n        /* \"#utility.yul\":2946:2966   */\n      swap1\n      pop\n        /* \"#utility.yul\":2675:2972   */\n      swap3\n      swap2\n      pop\n      pop\n      jump\t// out\n        /* \"#utility.yul\":2978:3055   */\n    tag_76:\n        /* \"#utility.yul\":3015:3022   */\n      0x00\n        /* \"#utility.yul\":3044:3049   */\n      dup2\n        /* \"#utility.yul\":3033:3049   */\n      swap1\n      pop\n        /* \"#utility.yul\":2978:3055   */\n      swap2\n      swap1\n      pop\n      jump\t// out\n        /* \"#utility.yul\":3061:3162   */\n    tag_92:\n        /* \"#utility.yul\":3097:3104   */\n      0x00\n        /* \"#utility.yul\":3137:3155   */\n      0xffffffffffffffff\n        /* \"#utility.yul\":3130:3135   */\n      dup3\n        /* \"#utility.yul\":3126:3156   */\n      and\n        /* \"#utility.yul\":3115:3156   */\n      swap1\n      pop\n        /* \"#utility.yul\":3061:3162   */\n      swap2\n      swap1\n      pop\n      jump\t// out\n        /* \"#utility.yul\":3168:3254   */\n    tag_98:\n        /* \"#utility.yul\":3203:3210   */\n      0x00\n        /* \"#utility.yul\":3243:3247   */\n      0xff\n        /* \"#utility.yul\":3236:3241   */\n      dup3\n        /* \"#utility.yul\":3232:3248   */\n      and\n        /* \"#utility.yul\":3221:3248   */\n      swap1\n      pop\n        /* \"#utility.yul\":3168:3254   */\n      swap2\n      swap1\n      pop\n      jump\t// out\n        /* \"#utility.yul\":3260:3440   */\n    tag_89:\n        /* \"#utility.yul\":3308:3385   */\n      0x4e487b7100000000000000000000000000000000000000000000000000000000\n        /* \"#utility.yul\":3305:3306   */\n      0x00\n        /* \"#utility.yul\":3298:3386   */\n      mstore\n        /* \"#utility.yul\":3405:3409   */\n      0x11\n        /* \"#utility.yul\":3402:3403   */\n      0x04\n        /* \"#utility.yul\":3395:3410   */\n      mstore\n        /* \"#utility.yul\":3429:3433   */\n      0x24\n        /* \"#utility.yul\":3426:3427   */\n      0x00\n        /* \"#utility.yul\":3419:3434   */\n      revert\n        /* \"#utility.yul\":3569:3686   */\n    tag_61:\n        /* \"#utility.yul\":3678:3679   */\n      0x00\n        /* \"#utility.yul\":3675:3676   */\n      dup1\n        /* \"#utility.yul\":3668:3680   */\n      revert\n        /* \"#utility.yul\":3692:3870   */\n    tag_72:\n        /* \"#utility.yul\":3832:3862   */\n      0x7061796d656e742076616c75652068617320746f203320657468657200000000\n        /* \"#utility.yul\":3828:3829   */\n      0x00\n        /* \"#utility.yul\":3820:3826   */\n      dup3\n        /* \"#utility.yul\":3816:3830   */\n      add\n        /* \"#utility.yul\":3809:3863   */\n      mstore\n        /* \"#utility.yul\":3692:3870   */\n      pop\n      jump\t// out\n        /* \"#utility.yul\":3876:3998   */\n    tag_53:\n        /* \"#utility.yul\":3949:3973   */\n      tag_106\n        /* \"#utility.yul\":3967:3972   */\n      dup2\n        /* \"#utility.yul\":3949:3973   */\n      tag_76\n      jump\t// in\n    tag_106:\n        /* \"#utility.yul\":3942:3947   */\n      dup2\n        /* \"#utility.yul\":3939:3974   */\n      eq\n        /* \"#utility.yul\":3929:3992   */\n      tag_107\n      jumpi\n        /* \"#utility.yul\":3988:3989   */\n      0x00\n        /* \"#utility.yul\":3985:3986   */\n      dup1\n        /* \"#utility.yul\":3978:3990   */\n      revert\n        /* \"#utility.yul\":3929:3992   */\n    tag_107:\n        /* \"#utility.yul\":3876:3998   */\n      pop\n      jump\t// out\n        /* \"#utility.yul\":4004:4122   */\n    tag_57:\n        /* \"#utility.yul\":4075:4097   */\n      tag_109\n        /* \"#utility.yul\":4091:4096   */\n      dup2\n        /* \"#utility.yul\":4075:4097   */\n      tag_98\n      jump\t// in\n    tag_109:\n        /* \"#utility.yul\":4068:4073   */\n      dup2\n        /* \"#utility.yul\":4065:4098   */\n      eq\n        /* \"#utility.yul\":4055:4116   */\n      tag_110\n      jumpi\n        /* \"#utility.yul\":4112:4113   */\n      0x00\n        /* \"#utility.yul\":4109:4110   */\n      dup1\n        /* \"#utility.yul\":4102:4114   */\n      revert\n        /* \"#utility.yul\":4055:4116   */\n    tag_110:\n        /* \"#utility.yul\":4004:4122   */\n      pop\n      jump\t// out\n\n    auxdata: 0xa2646970667358221220ea625b7ad6e4efd0a75fc2dfda6f007e08ea79260cade0a207553af09887961f64736f6c63430008070033\n}\n",
				"bytecode": {
					"linkReferences": {},
					"object": "608060405234801561001057600080fd5b506104e2806100206000396000f3fe6080604052600436106100555760003560e01c806312065fe01461005a5780632e64cec114610085578063543df080146100b05780636057361d146100ba578063a04c797f146100e3578063ac446002146100ff575b600080fd5b34801561006657600080fd5b5061006f610116565b60405161007c9190610332565b60405180910390f35b34801561009157600080fd5b5061009a61011e565b6040516100a79190610332565b60405180910390f35b6100b8610127565b005b3480156100c657600080fd5b506100e160048036038101906100dc9190610286565b610142565b005b6100fd60048036038101906100f891906102b3565b61014c565b005b34801561010b57600080fd5b50610114610206565b005b600047905090565b60008054905090565b3460016000828254610139919061035e565b92505081905550565b8060008190555050565b6729a2241af62c00003414610196576040517f08c379a000000000000000000000000000000000000000000000000000000000815260040161018d90610312565b60405180910390fd5b60003390508073ffffffffffffffffffffffffffffffffffffffff166108fc670de0b6b3a76400008460ff166101cc91906103b4565b67ffffffffffffffff169081150290604051600060405180830381858888f19350505050158015610201573d6000803e3d6000fd5b505050565b60003390508073ffffffffffffffffffffffffffffffffffffffff166108fc61022d610116565b9081150290604051600060405180830381858888f19350505050158015610258573d6000803e3d6000fd5b5050565b60008135905061026b8161047e565b92915050565b60008135905061028081610495565b92915050565b60006020828403121561029c5761029b610450565b5b60006102aa8482850161025c565b91505092915050565b6000602082840312156102c9576102c8610450565b5b60006102d784828501610271565b91505092915050565b60006102ed601c8361034d565b91506102f882610455565b602082019050919050565b61030c816103f6565b82525050565b6000602082019050818103600083015261032b816102e0565b9050919050565b60006020820190506103476000830184610303565b92915050565b600082825260208201905092915050565b6000610369826103f6565b9150610374836103f6565b9250827fffffffffffffffffffffffffffffffffffffffffffffffffffffffffffffffff038211156103a9576103a8610421565b5b828201905092915050565b60006103bf82610400565b91506103ca83610400565b92508167ffffffffffffffff04831182151516156103eb576103ea610421565b5b828202905092915050565b6000819050919050565b600067ffffffffffffffff82169050919050565b600060ff82169050919050565b7f4e487b7100000000000000000000000000000000000000000000000000000000600052601160045260246000fd5b600080fd5b7f7061796d656e742076616c75652068617320746f203320657468657200000000600082015250565b610487816103f6565b811461049257600080fd5b50565b61049e81610414565b81146104a957600080fd5b5056fea2646970667358221220ea625b7ad6e4efd0a75fc2dfda6f007e08ea79260cade0a207553af09887961f64736f6c63430008070033",
					"opcodes": "PUSH1 0x80 PUSH1 0x40 MSTORE CALLVALUE DUP1 ISZERO PUSH2 0x10 JUMPI PUSH1 0x0 DUP1 REVERT JUMPDEST POP PUSH2 0x4E2 DUP1 PUSH2 0x20 PUSH1 0x0 CODECOPY PUSH1 0x0 RETURN INVALID PUSH1 0x80 PUSH1 0x40 MSTORE PUSH1 0x4 CALLDATASIZE LT PUSH2 0x55 JUMPI PUSH1 0x0 CALLDATALOAD PUSH1 0xE0 SHR DUP1 PUSH4 0x12065FE0 EQ PUSH2 0x5A JUMPI DUP1 PUSH4 0x2E64CEC1 EQ PUSH2 0x85 JUMPI DUP1 PUSH4 0x543DF080 EQ PUSH2 0xB0 JUMPI DUP1 PUSH4 0x6057361D EQ PUSH2 0xBA JUMPI DUP1 PUSH4 0xA04C797F EQ PUSH2 0xE3 JUMPI DUP1 PUSH4 0xAC446002 EQ PUSH2 0xFF JUMPI JUMPDEST PUSH1 0x0 DUP1 REVERT JUMPDEST CALLVALUE DUP1 ISZERO PUSH2 0x66 JUMPI PUSH1 0x0 DUP1 REVERT JUMPDEST POP PUSH2 0x6F PUSH2 0x116 JUMP JUMPDEST PUSH1 0x40 MLOAD PUSH2 0x7C SWAP2 SWAP1 PUSH2 0x332 JUMP JUMPDEST PUSH1 0x40 MLOAD DUP1 SWAP2 SUB SWAP1 RETURN JUMPDEST CALLVALUE DUP1 ISZERO PUSH2 0x91 JUMPI PUSH1 0x0 DUP1 REVERT JUMPDEST POP PUSH2 0x9A PUSH2 0x11E JUMP JUMPDEST PUSH1 0x40 MLOAD PUSH2 0xA7 SWAP2 SWAP1 PUSH2 0x332 JUMP JUMPDEST PUSH1 0x40 MLOAD DUP1 SWAP2 SUB SWAP1 RETURN JUMPDEST PUSH2 0xB8 PUSH2 0x127 JUMP JUMPDEST STOP JUMPDEST CALLVALUE DUP1 ISZERO PUSH2 0xC6 JUMPI PUSH1 0x0 DUP1 REVERT JUMPDEST POP PUSH2 0xE1 PUSH1 0x4 DUP1 CALLDATASIZE SUB DUP2 ADD SWAP1 PUSH2 0xDC SWAP2 SWAP1 PUSH2 0x286 JUMP JUMPDEST PUSH2 0x142 JUMP JUMPDEST STOP JUMPDEST PUSH2 0xFD PUSH1 0x4 DUP1 CALLDATASIZE SUB DUP2 ADD SWAP1 PUSH2 0xF8 SWAP2 SWAP1 PUSH2 0x2B3 JUMP JUMPDEST PUSH2 0x14C JUMP JUMPDEST STOP JUMPDEST CALLVALUE DUP1 ISZERO PUSH2 0x10B JUMPI PUSH1 0x0 DUP1 REVERT JUMPDEST POP PUSH2 0x114 PUSH2 0x206 JUMP JUMPDEST STOP JUMPDEST PUSH1 0x0 SELFBALANCE SWAP1 POP SWAP1 JUMP JUMPDEST PUSH1 0x0 DUP1 SLOAD SWAP1 POP SWAP1 JUMP JUMPDEST CALLVALUE PUSH1 0x1 PUSH1 0x0 DUP3 DUP3 SLOAD PUSH2 0x139 SWAP2 SWAP1 PUSH2 0x35E JUMP JUMPDEST SWAP3 POP POP DUP2 SWAP1 SSTORE POP JUMP JUMPDEST DUP1 PUSH1 0x0 DUP2 SWAP1 SSTORE POP POP JUMP JUMPDEST PUSH8 0x29A2241AF62C0000 CALLVALUE EQ PUSH2 0x196 JUMPI PUSH1 0x40 MLOAD PUSH32 0x8C379A000000000000000000000000000000000000000000000000000000000 DUP2 MSTORE PUSH1 0x4 ADD PUSH2 0x18D SWAP1 PUSH2 0x312 JUMP JUMPDEST PUSH1 0x40 MLOAD DUP1 SWAP2 SUB SWAP1 REVERT JUMPDEST PUSH1 0x0 CALLER SWAP1 POP DUP1 PUSH20 0xFFFFFFFFFFFFFFFFFFFFFFFFFFFFFFFFFFFFFFFF AND PUSH2 0x8FC PUSH8 0xDE0B6B3A7640000 DUP5 PUSH1 0xFF AND PUSH2 0x1CC SWAP2 SWAP1 PUSH2 0x3B4 JUMP JUMPDEST PUSH8 0xFFFFFFFFFFFFFFFF AND SWAP1 DUP2 ISZERO MUL SWAP1 PUSH1 0x40 MLOAD PUSH1 0x0 PUSH1 0x40 MLOAD DUP1 DUP4 SUB DUP2 DUP6 DUP9 DUP9 CALL SWAP4 POP POP POP POP ISZERO DUP1 ISZERO PUSH2 0x201 JUMPI RETURNDATASIZE PUSH1 0x0 DUP1 RETURNDATACOPY RETURNDATASIZE PUSH1 0x0 REVERT JUMPDEST POP POP POP JUMP JUMPDEST PUSH1 0x0 CALLER SWAP1 POP DUP1 PUSH20 0xFFFFFFFFFFFFFFFFFFFFFFFFFFFFFFFFFFFFFFFF AND PUSH2 0x8FC PUSH2 0x22D PUSH2 0x116 JUMP JUMPDEST SWAP1 DUP2 ISZERO MUL SWAP1 PUSH1 0x40 MLOAD PUSH1 0x0 PUSH1 0x40 MLOAD DUP1 DUP4 SUB DUP2 DUP6 DUP9 DUP9 CALL SWAP4 POP POP POP POP ISZERO DUP1 ISZERO PUSH2 0x258 JUMPI RETURNDATASIZE PUSH1 0x0 DUP1 RETURNDATACOPY RETURNDATASIZE PUSH1 0x0 REVERT JUMPDEST POP POP JUMP JUMPDEST PUSH1 0x0 DUP2 CALLDATALOAD SWAP1 POP PUSH2 0x26B DUP2 PUSH2 0x47E JUMP JUMPDEST SWAP3 SWAP2 POP POP JUMP JUMPDEST PUSH1 0x0 DUP2 CALLDATALOAD SWAP1 POP PUSH2 0x280 DUP2 PUSH2 0x495 JUMP JUMPDEST SWAP3 SWAP2 POP POP JUMP JUMPDEST PUSH1 0x0 PUSH1 0x20 DUP3 DUP5 SUB SLT ISZERO PUSH2 0x29C JUMPI PUSH2 0x29B PUSH2 0x450 JUMP JUMPDEST JUMPDEST PUSH1 0x0 PUSH2 0x2AA DUP5 DUP3 DUP6 ADD PUSH2 0x25C JUMP JUMPDEST SWAP2 POP POP SWAP3 SWAP2 POP POP JUMP JUMPDEST PUSH1 0x0 PUSH1 0x20 DUP3 DUP5 SUB SLT ISZERO PUSH2 0x2C9 JUMPI PUSH2 0x2C8 PUSH2 0x450 JUMP JUMPDEST JUMPDEST PUSH1 0x0 PUSH2 0x2D7 DUP5 DUP3 DUP6 ADD PUSH2 0x271 JUMP JUMPDEST SWAP2 POP POP SWAP3 SWAP2 POP POP JUMP JUMPDEST PUSH1 0x0 PUSH2 0x2ED PUSH1 0x1C DUP4 PUSH2 0x34D JUMP JUMPDEST SWAP2 POP PUSH2 0x2F8 DUP3 PUSH2 0x455 JUMP JUMPDEST PUSH1 0x20 DUP3 ADD SWAP1 POP SWAP2 SWAP1 POP JUMP JUMPDEST PUSH2 0x30C DUP2 PUSH2 0x3F6 JUMP JUMPDEST DUP3 MSTORE POP POP JUMP JUMPDEST PUSH1 0x0 PUSH1 0x20 DUP3 ADD SWAP1 POP DUP2 DUP2 SUB PUSH1 0x0 DUP4 ADD MSTORE PUSH2 0x32B DUP2 PUSH2 0x2E0 JUMP JUMPDEST SWAP1 POP SWAP2 SWAP1 POP JUMP JUMPDEST PUSH1 0x0 PUSH1 0x20 DUP3 ADD SWAP1 POP PUSH2 0x347 PUSH1 0x0 DUP4 ADD DUP5 PUSH2 0x303 JUMP JUMPDEST SWAP3 SWAP2 POP POP JUMP JUMPDEST PUSH1 0x0 DUP3 DUP3 MSTORE PUSH1 0x20 DUP3 ADD SWAP1 POP SWAP3 SWAP2 POP POP JUMP JUMPDEST PUSH1 0x0 PUSH2 0x369 DUP3 PUSH2 0x3F6 JUMP JUMPDEST SWAP2 POP PUSH2 0x374 DUP4 PUSH2 0x3F6 JUMP JUMPDEST SWAP3 POP DUP3 PUSH32 0xFFFFFFFFFFFFFFFFFFFFFFFFFFFFFFFFFFFFFFFFFFFFFFFFFFFFFFFFFFFFFFFF SUB DUP3 GT ISZERO PUSH2 0x3A9 JUMPI PUSH2 0x3A8 PUSH2 0x421 JUMP JUMPDEST JUMPDEST DUP3 DUP3 ADD SWAP1 POP SWAP3 SWAP2 POP POP JUMP JUMPDEST PUSH1 0x0 PUSH2 0x3BF DUP3 PUSH2 0x400 JUMP JUMPDEST SWAP2 POP PUSH2 0x3CA DUP4 PUSH2 0x400 JUMP JUMPDEST SWAP3 POP DUP2 PUSH8 0xFFFFFFFFFFFFFFFF DIV DUP4 GT DUP3 ISZERO ISZERO AND ISZERO PUSH2 0x3EB JUMPI PUSH2 0x3EA PUSH2 0x421 JUMP JUMPDEST JUMPDEST DUP3 DUP3 MUL SWAP1 POP SWAP3 SWAP2 POP POP JUMP JUMPDEST PUSH1 0x0 DUP2 SWAP1 POP SWAP2 SWAP1 POP JUMP JUMPDEST PUSH1 0x0 PUSH8 0xFFFFFFFFFFFFFFFF DUP3 AND SWAP1 POP SWAP2 SWAP1 POP JUMP JUMPDEST PUSH1 0x0 PUSH1 0xFF DUP3 AND SWAP1 POP SWAP2 SWAP1 POP JUMP JUMPDEST PUSH32 0x4E487B7100000000000000000000000000000000000000000000000000000000 PUSH1 0x0 MSTORE PUSH1 0x11 PUSH1 0x4 MSTORE PUSH1 0x24 PUSH1 0x0 REVERT JUMPDEST PUSH1 0x0 DUP1 REVERT JUMPDEST PUSH32 0x7061796D656E742076616C75652068617320746F203320657468657200000000 PUSH1 0x0 DUP3 ADD MSTORE POP JUMP JUMPDEST PUSH2 0x487 DUP2 PUSH2 0x3F6 JUMP JUMPDEST DUP2 EQ PUSH2 0x492 JUMPI PUSH1 0x0 DUP1 REVERT JUMPDEST POP JUMP JUMPDEST PUSH2 0x49E DUP2 PUSH2 0x414 JUMP JUMPDEST DUP2 EQ PUSH2 0x4A9 JUMPI PUSH1 0x0 DUP1 REVERT JUMPDEST POP JUMP INVALID LOG2 PUSH5 0x6970667358 0x22 SLT KECCAK256 0xEA PUSH3 0x5B7AD6 0xE4 0xEF 0xD0 0xA7 0x5F 0xC2 0xDF 0xDA PUSH16 0x7E08EA79260CADE0A207553AF09887 SWAP7 0x1F PUSH5 0x736F6C6343 STOP ADDMOD SMOD STOP CALLER "
				},
				"gasEstimates": {
					"creation": {
						"codeDepositCost": "250000",
						"executionCost": "294",
						"totalCost": "250294"
					},
					"external": {
						"dice(uint8)": "infinite",
						"getBalance()": "317",
						"refil()": "infinite",
						"retrieve()": "2437",
						"store(uint256)": "22564",
						"withdrawMoney()": "infinite"
					}
				},
				"methodIdentifiers": {
					"dice(uint8)": "a04c797f",
					"getBalance()": "12065fe0",
					"refil()": "543df080",
					"retrieve()": "2e64cec1",
					"store(uint256)": "6057361d",
					"withdrawMoney()": "ac446002"
				}
			},
			"storageLayout": {
				"storage": [
					{
						"astId": 3,
						"contract": "dice.sol:Dice",
						"label": "number",
						"offset": 0,
						"slot": "0",
						"type": "t_uint256"
					},
					{
						"astId": 5,
						"contract": "dice.sol:Dice",
						"label": "balance",
						"offset": 0,
						"slot": "1",
						"type": "t_uint256"
					}
				],
				"types": {
					"t_uint256": {
						"encoding": "inplace",
						"label": "uint256",
						"numberOfBytes": "32"
					}
				}
			},
			"userdoc": {
				"kind": "user",
				"methods": {},
				"version": 1
			}
		}
	}
}